{
    "contractAddress": "0x20bEfD6Af965c0fC628dF05f3a1A887712D3D99C",
    "_format": "hh-sol-artifact-1",
    "contractName": "MillimxNft",
    "sourceName": "contracts/MillimxNft.sol",
    "abi": [
        {
            "inputs": [
                {
                    "internalType": "uint256",
                    "name": "_mintFee",
                    "type": "uint256"
                },
                {
                    "internalType": "uint256",
                    "name": "_feePercent",
                    "type": "uint256"
                },
                {
                    "internalType": "uint256",
                    "name": "_nftGiftFee",
                    "type": "uint256"
                }
            ],
            "stateMutability": "nonpayable",
            "type": "constructor"
        },
        {
            "anonymous": false,
            "inputs": [
                {
                    "indexed": true,
                    "internalType": "address",
                    "name": "owner",
                    "type": "address"
                },
                {
                    "indexed": true,
                    "internalType": "address",
                    "name": "approved",
                    "type": "address"
                },
                {
                    "indexed": true,
                    "internalType": "uint256",
                    "name": "tokenId",
                    "type": "uint256"
                }
            ],
            "name": "Approval",
            "type": "event"
        },
        {
            "anonymous": false,
            "inputs": [
                {
                    "indexed": true,
                    "internalType": "address",
                    "name": "owner",
                    "type": "address"
                },
                {
                    "indexed": true,
                    "internalType": "address",
                    "name": "operator",
                    "type": "address"
                },
                {
                    "indexed": false,
                    "internalType": "bool",
                    "name": "approved",
                    "type": "bool"
                }
            ],
            "name": "ApprovalForAll",
            "type": "event"
        },
        {
            "anonymous": false,
            "inputs": [
                {
                    "indexed": false,
                    "internalType": "uint256",
                    "name": "tokenId",
                    "type": "uint256"
                },
                {
                    "indexed": true,
                    "internalType": "address",
                    "name": "millimxAddress",
                    "type": "address"
                },
                {
                    "indexed": false,
                    "internalType": "uint256",
                    "name": "feePercent",
                    "type": "uint256"
                },
                {
                    "indexed": false,
                    "internalType": "uint256",
                    "name": "feePrice",
                    "type": "uint256"
                }
            ],
            "name": "GiftFee",
            "type": "event"
        },
        {
            "anonymous": false,
            "inputs": [
                {
                    "indexed": false,
                    "internalType": "uint256",
                    "name": "tokenId",
                    "type": "uint256"
                },
                {
                    "indexed": true,
                    "internalType": "address",
                    "name": "millimxAddress",
                    "type": "address"
                },
                {
                    "indexed": false,
                    "internalType": "uint256",
                    "name": "feePercent",
                    "type": "uint256"
                },
                {
                    "indexed": false,
                    "internalType": "uint256",
                    "name": "feePrice",
                    "type": "uint256"
                }
            ],
            "name": "MintFee",
            "type": "event"
        },
        {
            "anonymous": false,
            "inputs": [
                {
                    "indexed": false,
                    "internalType": "uint256",
                    "name": "tokenId",
                    "type": "uint256"
                },
                {
                    "indexed": false,
                    "internalType": "string",
                    "name": "tokenURI",
                    "type": "string"
                },
                {
                    "indexed": true,
                    "internalType": "address",
                    "name": "minter",
                    "type": "address"
                }
            ],
            "name": "Minted",
            "type": "event"
        },
        {
            "anonymous": false,
            "inputs": [
                {
                    "indexed": false,
                    "internalType": "uint256",
                    "name": "tokenId",
                    "type": "uint256"
                },
                {
                    "indexed": true,
                    "internalType": "address",
                    "name": "fromAddress",
                    "type": "address"
                },
                {
                    "indexed": true,
                    "internalType": "address",
                    "name": "toAddress",
                    "type": "address"
                }
            ],
            "name": "NftGift",
            "type": "event"
        },
        {
            "anonymous": false,
            "inputs": [
                {
                    "indexed": true,
                    "internalType": "address",
                    "name": "previousOwner",
                    "type": "address"
                },
                {
                    "indexed": true,
                    "internalType": "address",
                    "name": "newOwner",
                    "type": "address"
                }
            ],
            "name": "OwnershipTransferred",
            "type": "event"
        },
        {
            "anonymous": false,
            "inputs": [
                {
                    "indexed": false,
                    "internalType": "uint256",
                    "name": "tokenId",
                    "type": "uint256"
                },
                {
                    "indexed": false,
                    "internalType": "uint256",
                    "name": "price",
                    "type": "uint256"
                },
                {
                    "indexed": true,
                    "internalType": "address",
                    "name": "seller",
                    "type": "address"
                },
                {
                    "indexed": true,
                    "internalType": "address",
                    "name": "buyer",
                    "type": "address"
                }
            ],
            "name": "ShowTimeBought",
            "type": "event"
        },
        {
            "anonymous": false,
            "inputs": [
                {
                    "indexed": false,
                    "internalType": "uint256",
                    "name": "tokenId",
                    "type": "uint256"
                },
                {
                    "indexed": true,
                    "internalType": "address",
                    "name": "millimxAddress",
                    "type": "address"
                },
                {
                    "indexed": false,
                    "internalType": "uint256",
                    "name": "feePercent",
                    "type": "uint256"
                },
                {
                    "indexed": false,
                    "internalType": "uint256",
                    "name": "feePrice",
                    "type": "uint256"
                }
            ],
            "name": "ShowTimeBoughtFee",
            "type": "event"
        },
        {
            "anonymous": false,
            "inputs": [
                {
                    "indexed": false,
                    "internalType": "uint256",
                    "name": "tokenId",
                    "type": "uint256"
                },
                {
                    "indexed": false,
                    "internalType": "string",
                    "name": "tokenURI",
                    "type": "string"
                },
                {
                    "indexed": false,
                    "internalType": "uint256",
                    "name": "price",
                    "type": "uint256"
                },
                {
                    "indexed": true,
                    "internalType": "address",
                    "name": "minter",
                    "type": "address"
                }
            ],
            "name": "ShowTimeMinted",
            "type": "event"
        },
        {
            "anonymous": false,
            "inputs": [
                {
                    "indexed": false,
                    "internalType": "uint256",
                    "name": "tokenId",
                    "type": "uint256"
                },
                {
                    "indexed": true,
                    "internalType": "address",
                    "name": "royaltyAddress",
                    "type": "address"
                },
                {
                    "indexed": false,
                    "internalType": "uint256",
                    "name": "royaltyPercent",
                    "type": "uint256"
                },
                {
                    "indexed": false,
                    "internalType": "uint256",
                    "name": "royaltyPrice",
                    "type": "uint256"
                }
            ],
            "name": "ShowTimeRoyalty",
            "type": "event"
        },
        {
            "anonymous": false,
            "inputs": [
                {
                    "indexed": true,
                    "internalType": "address",
                    "name": "from",
                    "type": "address"
                },
                {
                    "indexed": true,
                    "internalType": "address",
                    "name": "to",
                    "type": "address"
                },
                {
                    "indexed": true,
                    "internalType": "uint256",
                    "name": "tokenId",
                    "type": "uint256"
                }
            ],
            "name": "Transfer",
            "type": "event"
        },
        {
            "inputs": [
                {
                    "internalType": "address",
                    "name": "to",
                    "type": "address"
                },
                {
                    "internalType": "uint256",
                    "name": "tokenId",
                    "type": "uint256"
                }
            ],
            "name": "approve",
            "outputs": [],
            "stateMutability": "nonpayable",
            "type": "function"
        },
        {
            "inputs": [
                {
                    "internalType": "address",
                    "name": "owner",
                    "type": "address"
                }
            ],
            "name": "balanceOf",
            "outputs": [
                {
                    "internalType": "uint256",
                    "name": "",
                    "type": "uint256"
                }
            ],
            "stateMutability": "view",
            "type": "function"
        },
        {
            "inputs": [
                {
                    "internalType": "uint256",
                    "name": "tokenId",
                    "type": "uint256"
                }
            ],
            "name": "getApproved",
            "outputs": [
                {
                    "internalType": "address",
                    "name": "",
                    "type": "address"
                }
            ],
            "stateMutability": "view",
            "type": "function"
        },
        {
            "inputs": [
                {
                    "internalType": "uint256",
                    "name": "_tokenId",
                    "type": "uint256"
                }
            ],
            "name": "getIsOnMarket",
            "outputs": [
                {
                    "internalType": "bool",
                    "name": "",
                    "type": "bool"
                }
            ],
            "stateMutability": "view",
            "type": "function"
        },
        {
            "inputs": [
                {
                    "internalType": "uint256",
                    "name": "_tokenId",
                    "type": "uint256"
                }
            ],
            "name": "getMyNftItemDetail",
            "outputs": [
                {
                    "internalType": "string",
                    "name": "",
                    "type": "string"
                }
            ],
            "stateMutability": "view",
            "type": "function"
        },
        {
            "inputs": [
                {
                    "internalType": "uint256",
                    "name": "_balanceIndex",
                    "type": "uint256"
                }
            ],
            "name": "getMyNftItems",
            "outputs": [
                {
                    "internalType": "string",
                    "name": "",
                    "type": "string"
                },
                {
                    "internalType": "uint256",
                    "name": "",
                    "type": "uint256"
                }
            ],
            "stateMutability": "view",
            "type": "function"
        },
        {
            "inputs": [
                {
                    "internalType": "uint256",
                    "name": "_tokenId",
                    "type": "uint256"
                }
            ],
            "name": "getSplitAddress",
            "outputs": [
                {
                    "internalType": "address[]",
                    "name": "",
                    "type": "address[]"
                }
            ],
            "stateMutability": "view",
            "type": "function"
        },
        {
            "inputs": [
                {
                    "internalType": "uint256",
                    "name": "_tokenId",
                    "type": "uint256"
                }
            ],
            "name": "getSplitPercent",
            "outputs": [
                {
                    "internalType": "uint256[]",
                    "name": "",
                    "type": "uint256[]"
                }
            ],
            "stateMutability": "view",
            "type": "function"
        },
        {
            "inputs": [],
            "name": "giftFee",
            "outputs": [
                {
                    "internalType": "uint256",
                    "name": "",
                    "type": "uint256"
                }
            ],
            "stateMutability": "view",
            "type": "function"
        },
        {
            "inputs": [],
            "name": "giftFeeAccount",
            "outputs": [
                {
                    "internalType": "address payable",
                    "name": "",
                    "type": "address"
                }
            ],
            "stateMutability": "view",
            "type": "function"
        },
        {
            "inputs": [
                {
                    "internalType": "address",
                    "name": "owner",
                    "type": "address"
                },
                {
                    "internalType": "address",
                    "name": "operator",
                    "type": "address"
                }
            ],
            "name": "isApprovedForAll",
            "outputs": [
                {
                    "internalType": "bool",
                    "name": "",
                    "type": "bool"
                }
            ],
            "stateMutability": "view",
            "type": "function"
        },
        {
            "inputs": [],
            "name": "mintFee",
            "outputs": [
                {
                    "internalType": "uint256",
                    "name": "",
                    "type": "uint256"
                }
            ],
            "stateMutability": "view",
            "type": "function"
        },
        {
            "inputs": [],
            "name": "mintFeeAccount",
            "outputs": [
                {
                    "internalType": "address payable",
                    "name": "",
                    "type": "address"
                }
            ],
            "stateMutability": "view",
            "type": "function"
        },
        {
            "inputs": [
                {
                    "internalType": "string",
                    "name": "_tokenURI",
                    "type": "string"
                },
                {
                    "internalType": "address[]",
                    "name": "_splitAddress",
                    "type": "address[]"
                },
                {
                    "internalType": "uint256[]",
                    "name": "_splitPercent",
                    "type": "uint256[]"
                }
            ],
            "name": "minting",
            "outputs": [
                {
                    "internalType": "uint256",
                    "name": "",
                    "type": "uint256"
                }
            ],
            "stateMutability": "payable",
            "type": "function"
        },
        {
            "inputs": [],
            "name": "name",
            "outputs": [
                {
                    "internalType": "string",
                    "name": "",
                    "type": "string"
                }
            ],
            "stateMutability": "view",
            "type": "function"
        },
        {
            "inputs": [
                {
                    "internalType": "uint256",
                    "name": "_tokenId",
                    "type": "uint256"
                },
                {
                    "internalType": "address",
                    "name": "toAddress",
                    "type": "address"
                }
            ],
            "name": "nftGift",
            "outputs": [],
            "stateMutability": "payable",
            "type": "function"
        },
        {
            "inputs": [],
            "name": "owner",
            "outputs": [
                {
                    "internalType": "address",
                    "name": "",
                    "type": "address"
                }
            ],
            "stateMutability": "view",
            "type": "function"
        },
        {
            "inputs": [
                {
                    "internalType": "uint256",
                    "name": "tokenId",
                    "type": "uint256"
                }
            ],
            "name": "ownerOf",
            "outputs": [
                {
                    "internalType": "address",
                    "name": "",
                    "type": "address"
                }
            ],
            "stateMutability": "view",
            "type": "function"
        },
        {
            "inputs": [],
            "name": "renounceOwnership",
            "outputs": [],
            "stateMutability": "nonpayable",
            "type": "function"
        },
        {
            "inputs": [
                {
                    "internalType": "address",
                    "name": "to",
                    "type": "address"
                },
                {
                    "internalType": "uint256",
                    "name": "tokenId",
                    "type": "uint256"
                }
            ],
            "name": "safeMint",
            "outputs": [],
            "stateMutability": "nonpayable",
            "type": "function"
        },
        {
            "inputs": [
                {
                    "internalType": "address",
                    "name": "from",
                    "type": "address"
                },
                {
                    "internalType": "address",
                    "name": "to",
                    "type": "address"
                },
                {
                    "internalType": "uint256",
                    "name": "tokenId",
                    "type": "uint256"
                }
            ],
            "name": "safeTransferFrom",
            "outputs": [],
            "stateMutability": "nonpayable",
            "type": "function"
        },
        {
            "inputs": [
                {
                    "internalType": "address",
                    "name": "from",
                    "type": "address"
                },
                {
                    "internalType": "address",
                    "name": "to",
                    "type": "address"
                },
                {
                    "internalType": "uint256",
                    "name": "tokenId",
                    "type": "uint256"
                },
                {
                    "internalType": "bytes",
                    "name": "data",
                    "type": "bytes"
                }
            ],
            "name": "safeTransferFrom",
            "outputs": [],
            "stateMutability": "nonpayable",
            "type": "function"
        },
        {
            "inputs": [
                {
                    "internalType": "address",
                    "name": "operator",
                    "type": "address"
                },
                {
                    "internalType": "bool",
                    "name": "approved",
                    "type": "bool"
                }
            ],
            "name": "setApprovalForAll",
            "outputs": [],
            "stateMutability": "nonpayable",
            "type": "function"
        },
        {
            "inputs": [
                {
                    "internalType": "uint256",
                    "name": "_giftFee",
                    "type": "uint256"
                }
            ],
            "name": "setGiftFee",
            "outputs": [],
            "stateMutability": "nonpayable",
            "type": "function"
        },
        {
            "inputs": [
                {
                    "internalType": "address",
                    "name": "_giftFeeAccount",
                    "type": "address"
                }
            ],
            "name": "setGiftFeeAccount",
            "outputs": [],
            "stateMutability": "nonpayable",
            "type": "function"
        },
        {
            "inputs": [
                {
                    "internalType": "uint256",
                    "name": "_tokenId",
                    "type": "uint256"
                },
                {
                    "internalType": "bool",
                    "name": "_isOnMarket",
                    "type": "bool"
                }
            ],
            "name": "setIsOnMarket",
            "outputs": [],
            "stateMutability": "nonpayable",
            "type": "function"
        },
        {
            "inputs": [
                {
                    "internalType": "uint256",
                    "name": "_mintFee",
                    "type": "uint256"
                }
            ],
            "name": "setMintFee",
            "outputs": [],
            "stateMutability": "nonpayable",
            "type": "function"
        },
        {
            "inputs": [
                {
                    "internalType": "address",
                    "name": "_mintFeeAccount",
                    "type": "address"
                }
            ],
            "name": "setMintFeeAccount",
            "outputs": [],
            "stateMutability": "nonpayable",
            "type": "function"
        },
        {
            "inputs": [
                {
                    "internalType": "address",
                    "name": "_smMintAccount",
                    "type": "address"
                }
            ],
            "name": "setSmMintAccount",
            "outputs": [],
            "stateMutability": "nonpayable",
            "type": "function"
        },
        {
            "inputs": [
                {
                    "internalType": "address",
                    "name": "_smPurchaseFeeAccount",
                    "type": "address"
                }
            ],
            "name": "setSmPurchaseFeeAccount",
            "outputs": [],
            "stateMutability": "nonpayable",
            "type": "function"
        },
        {
            "inputs": [
                {
                    "internalType": "uint256",
                    "name": "_smPurchaseFeePercent",
                    "type": "uint256"
                }
            ],
            "name": "setSmPurchaseFeePercent",
            "outputs": [],
            "stateMutability": "nonpayable",
            "type": "function"
        },
        {
            "inputs": [
                {
                    "internalType": "string",
                    "name": "_tokenURI",
                    "type": "string"
                },
                {
                    "internalType": "address[]",
                    "name": "_toAddress",
                    "type": "address[]"
                },
                {
                    "internalType": "address[]",
                    "name": "_splitAddress",
                    "type": "address[]"
                },
                {
                    "internalType": "uint256[]",
                    "name": "_splitPercent",
                    "type": "uint256[]"
                }
            ],
            "name": "showTimeFreeMinting",
            "outputs": [],
            "stateMutability": "payable",
            "type": "function"
        },
        {
            "inputs": [
                {
                    "internalType": "uint256",
                    "name": "",
                    "type": "uint256"
                }
            ],
            "name": "showTimeItems",
            "outputs": [
                {
                    "internalType": "uint256",
                    "name": "tokenId",
                    "type": "uint256"
                },
                {
                    "internalType": "uint256",
                    "name": "price",
                    "type": "uint256"
                },
                {
                    "internalType": "address payable",
                    "name": "seller",
                    "type": "address"
                },
                {
                    "internalType": "bool",
                    "name": "sold",
                    "type": "bool"
                }
            ],
            "stateMutability": "view",
            "type": "function"
        },
        {
            "inputs": [
                {
                    "internalType": "string[]",
                    "name": "_tokenURIs",
                    "type": "string[]"
                },
                {
                    "internalType": "uint256[]",
                    "name": "_sellPrices",
                    "type": "uint256[]"
                },
                {
                    "internalType": "address[]",
                    "name": "_splitAddress",
                    "type": "address[]"
                },
                {
                    "internalType": "uint256[]",
                    "name": "_splitPercent",
                    "type": "uint256[]"
                }
            ],
            "name": "showTimeMinting",
            "outputs": [],
            "stateMutability": "payable",
            "type": "function"
        },
        {
            "inputs": [
                {
                    "internalType": "uint256",
                    "name": "_tokenId",
                    "type": "uint256"
                }
            ],
            "name": "showTimePurchase",
            "outputs": [],
            "stateMutability": "payable",
            "type": "function"
        },
        {
            "inputs": [],
            "name": "smMintAccount",
            "outputs": [
                {
                    "internalType": "address payable",
                    "name": "",
                    "type": "address"
                }
            ],
            "stateMutability": "view",
            "type": "function"
        },
        {
            "inputs": [],
            "name": "smPurchaseFeeAccount",
            "outputs": [
                {
                    "internalType": "address payable",
                    "name": "",
                    "type": "address"
                }
            ],
            "stateMutability": "view",
            "type": "function"
        },
        {
            "inputs": [],
            "name": "smPurchaseFeePercent",
            "outputs": [
                {
                    "internalType": "uint256",
                    "name": "",
                    "type": "uint256"
                }
            ],
            "stateMutability": "view",
            "type": "function"
        },
        {
            "inputs": [
                {
                    "internalType": "uint256",
                    "name": "",
                    "type": "uint256"
                },
                {
                    "internalType": "uint256",
                    "name": "",
                    "type": "uint256"
                }
            ],
            "name": "splitAddress",
            "outputs": [
                {
                    "internalType": "address",
                    "name": "",
                    "type": "address"
                }
            ],
            "stateMutability": "view",
            "type": "function"
        },
        {
            "inputs": [
                {
                    "internalType": "uint256",
                    "name": "",
                    "type": "uint256"
                },
                {
                    "internalType": "uint256",
                    "name": "",
                    "type": "uint256"
                }
            ],
            "name": "splitPercent",
            "outputs": [
                {
                    "internalType": "uint256",
                    "name": "",
                    "type": "uint256"
                }
            ],
            "stateMutability": "view",
            "type": "function"
        },
        {
            "inputs": [
                {
                    "internalType": "bytes4",
                    "name": "interfaceId",
                    "type": "bytes4"
                }
            ],
            "name": "supportsInterface",
            "outputs": [
                {
                    "internalType": "bool",
                    "name": "",
                    "type": "bool"
                }
            ],
            "stateMutability": "view",
            "type": "function"
        },
        {
            "inputs": [],
            "name": "symbol",
            "outputs": [
                {
                    "internalType": "string",
                    "name": "",
                    "type": "string"
                }
            ],
            "stateMutability": "view",
            "type": "function"
        },
        {
            "inputs": [
                {
                    "internalType": "uint256",
                    "name": "index",
                    "type": "uint256"
                }
            ],
            "name": "tokenByIndex",
            "outputs": [
                {
                    "internalType": "uint256",
                    "name": "",
                    "type": "uint256"
                }
            ],
            "stateMutability": "view",
            "type": "function"
        },
        {
            "inputs": [],
            "name": "tokenCount",
            "outputs": [
                {
                    "internalType": "uint256",
                    "name": "_value",
                    "type": "uint256"
                }
            ],
            "stateMutability": "view",
            "type": "function"
        },
        {
            "inputs": [
                {
                    "internalType": "address",
                    "name": "owner",
                    "type": "address"
                },
                {
                    "internalType": "uint256",
                    "name": "index",
                    "type": "uint256"
                }
            ],
            "name": "tokenOfOwnerByIndex",
            "outputs": [
                {
                    "internalType": "uint256",
                    "name": "",
                    "type": "uint256"
                }
            ],
            "stateMutability": "view",
            "type": "function"
        },
        {
            "inputs": [
                {
                    "internalType": "uint256",
                    "name": "tokenId",
                    "type": "uint256"
                }
            ],
            "name": "tokenURI",
            "outputs": [
                {
                    "internalType": "string",
                    "name": "",
                    "type": "string"
                }
            ],
            "stateMutability": "view",
            "type": "function"
        },
        {
            "inputs": [],
            "name": "totalSupplied",
            "outputs": [
                {
                    "internalType": "uint256",
                    "name": "",
                    "type": "uint256"
                }
            ],
            "stateMutability": "view",
            "type": "function"
        },
        {
            "inputs": [],
            "name": "totalSupply",
            "outputs": [
                {
                    "internalType": "uint256",
                    "name": "",
                    "type": "uint256"
                }
            ],
            "stateMutability": "view",
            "type": "function"
        },
        {
            "inputs": [
                {
                    "internalType": "address",
                    "name": "from",
                    "type": "address"
                },
                {
                    "internalType": "address",
                    "name": "to",
                    "type": "address"
                },
                {
                    "internalType": "uint256",
                    "name": "tokenId",
                    "type": "uint256"
                }
            ],
            "name": "transferFrom",
            "outputs": [],
            "stateMutability": "nonpayable",
            "type": "function"
        },
        {
            "inputs": [
                {
                    "internalType": "address",
                    "name": "newOwner",
                    "type": "address"
                }
            ],
            "name": "transferOwnership",
            "outputs": [],
            "stateMutability": "nonpayable",
            "type": "function"
        },
        {
            "inputs": [],
            "name": "withdraw",
            "outputs": [],
            "stateMutability": "payable",
            "type": "function"
        }
    ],
    "bytecode": "0x60806040523480156200001157600080fd5b5060405162003bd738038062003bd783398101604081905262000034916200024c565b604080518082018252600881526709ad2d8d8d2da74b60c31b60208083019182528351808501909452600384526209a98b60eb1b9084015281519192916200007f91600091620001a6565b50805162000095906001906020840190620001a6565b505050620000b2620000ac6200015060201b60201c565b62000154565b6001600c55600d80546001600160a01b0319908116732b8b712479e39bb2aa3c927a3a5b016036eecc7e17909155600e93909355600f8054841673dca8329006f93e2905663010cae895109db0b14c17905560109190915560118054831673341ded1deb57863b22af117d0d7eaec400969e5a17905560125560138054909116734d6b9f1fa7ed84e2a78d218b2b7f0fa46eccf3ea179055620002b7565b3390565b600b80546001600160a01b038381166001600160a01b0319831681179093556040519116919082907f8be0079c531659141344cd1fd0a4f28419497f9722a3daafe3b4186f6b6457e090600090a35050565b828054620001b4906200027a565b90600052602060002090601f016020900481019282620001d8576000855562000223565b82601f10620001f357805160ff191683800117855562000223565b8280016001018555821562000223579182015b828111156200022357825182559160200191906001019062000206565b506200023192915062000235565b5090565b5b8082111562000231576000815560010162000236565b60008060006060848603121562000261578283fd5b8351925060208401519150604084015190509250925092565b600181811c908216806200028f57607f821691505b60208210811415620002b157634e487b7160e01b600052602260045260246000fd5b50919050565b61391080620002c76000396000f3fe6080604052600436106102e45760003560e01c80638c18acd111610190578063b857ee72116100dc578063d00d638e11610095578063eddd0d9c1161006f578063eddd0d9c14610946578063f2fde38b14610966578063fa3b435d14610986578063ffe6e23a146109a657600080fd5b8063d00d638e146108bd578063d18dcaff146108dd578063e985e9c5146108fd57600080fd5b8063b857ee72146107fd578063b88d4fde1461081d578063c344d8971461083d578063c4e68ccf1461085d578063c87b56dd1461087d578063cb60dc8b1461089d57600080fd5b8063a22cb46511610149578063a668792911610123578063a66879291461071a578063ab8660621461073a578063adabe20114610768578063afe87291146107ea57600080fd5b8063a22cb4651461069f578063a27b467d146106bf578063a4f8d366146106fa57600080fd5b80638c18acd1146105e85780638da5cb5b1461060857806395d89b41146106265780639f181b5e1461063b578063a07896f814610652578063a14481941461067f57600080fd5b80632f745c591161024f57806350fc27f811610208578063630fd0ac116101e2578063630fd0ac1461057d5780636352211e1461059357806370a08231146105b3578063715018a6146105d357600080fd5b806350fc27f81461053457806351dfaae01461054a57806360533e911461055d57600080fd5b80632f745c5914610489578063338d8fcf146104a95780633ccfd60b146104bf57806342842e0e146104c757806345b06526146104e75780634f6ccce71461051457600080fd5b80630aa386fb116102a15780630aa386fb146103dd57806313966db5146103fd57806316bb79f71461042157806318160ddd146104415780631f2aa2f51461045657806323b872dd1461046957600080fd5b806301ffc9a7146102e9578063045cd6a51461031e57806305dcd1ff1461033357806306fdde0314610363578063081812fc14610385578063095ea7b3146103bd575b600080fd5b3480156102f557600080fd5b50610309610304366004613318565b6109b9565b60405190151581526020015b60405180910390f35b61033161032c366004613350565b6109ca565b005b34801561033f57600080fd5b5061030961034e366004613442565b60009081526014602052604090205460ff1690565b34801561036f57600080fd5b50610378610be1565b60405161031591906135dc565b34801561039157600080fd5b506103a56103a0366004613442565b610c73565b6040516001600160a01b039091168152602001610315565b3480156103c957600080fd5b506103316103d83660046131e1565b610c9a565b3480156103e957600080fd5b506103316103f8366004613442565b610db5565b34801561040957600080fd5b50610413600e5481565b604051908152602001610315565b34801561042d57600080fd5b5061033161043c3660046130b8565b610dc2565b34801561044d57600080fd5b50600954610413565b6104136104643660046133be565b610e12565b34801561047557600080fd5b50610331610484366004613104565b611038565b34801561049557600080fd5b506104136104a43660046131e1565b611069565b3480156104b557600080fd5b5061041360125481565b6103316110ff565b3480156104d357600080fd5b506103316104e2366004613104565b611136565b3480156104f357600080fd5b50610507610502366004613442565b611151565b60405161031591906135a4565b34801561052057600080fd5b5061041361052f366004613442565b6111b3565b34801561054057600080fd5b5061041360105481565b61033161055836600461320a565b611254565b34801561056957600080fd5b506103316105783660046130b8565b61155c565b34801561058957600080fd5b5061041360185481565b34801561059f57600080fd5b506103a56105ae366004613442565b6115ac565b3480156105bf57600080fd5b506104136105ce3660046130b8565b61160c565b3480156105df57600080fd5b50610331611692565b3480156105f457600080fd5b506103316106033660046130b8565b6116a6565b34801561061457600080fd5b50600b546001600160a01b03166103a5565b34801561063257600080fd5b50610378611731565b34801561064757600080fd5b506019546104139081565b34801561065e57600080fd5b5061067261066d366004613442565b611740565b6040516103159190613557565b34801561068b57600080fd5b5061033161069a3660046131e1565b6117ab565b3480156106ab57600080fd5b506103316106ba3660046131b8565b6117c1565b3480156106cb57600080fd5b506103316106da36600461347c565b600091825260146020526040909120805460ff1916911515919091179055565b34801561070657600080fd5b50600d546103a5906001600160a01b031681565b34801561072657600080fd5b50600f546103a5906001600160a01b031681565b34801561074657600080fd5b5061075a610755366004613442565b6117cc565b6040516103159291906135ef565b34801561077457600080fd5b506107b9610783366004613442565b6015602052600090815260409020805460018201546002909201549091906001600160a01b03811690600160a01b900460ff1684565b604051610315949392919093845260208401929092526001600160a01b031660408301521515606082015260800190565b6103316107f836600461345a565b6117f3565b34801561080957600080fd5b50610331610818366004613442565b611a53565b34801561082957600080fd5b5061033161083836600461313f565b611a60565b34801561084957600080fd5b506103a561085836600461349e565b611a98565b34801561086957600080fd5b50610378610878366004613442565b611ad0565b34801561088957600080fd5b50610378610898366004613442565b611ae4565b3480156108a957600080fd5b506103316108b83660046130b8565b611aef565b3480156108c957600080fd5b506013546103a5906001600160a01b031681565b3480156108e957600080fd5b506011546103a5906001600160a01b031681565b34801561090957600080fd5b506103096109183660046130d2565b6001600160a01b03918216600090815260056020908152604080832093909416825291909152205460ff1690565b34801561095257600080fd5b50610331610961366004613442565b611b80565b34801561097257600080fd5b506103316109813660046130b8565b611b8d565b34801561099257600080fd5b506104136109a136600461349e565b611c03565b6103316109b4366004613442565b611c34565b60006109c4826120d0565b92915050565b6109d26120f5565b60005b8351811015610bda576109ec601980546001019055565b60006109f760195490565b9050610a03338261214f565b610a0d8187612169565b6018819055604080516080810182528281526000602080830182815233848601818152606086018581528886526015909452868520955186559151600186015590516002909401805492511515600160a01b026001600160a81b03199093166001600160a01b03959095169490941791909117909255915190917fbd69fd66a4a4463f2c3f9a0e0ac6c9ffc2e16b58e76279e74813aaa70ec54ef491610ab79185918b919061370c565b60405180910390a2610af133868481518110610ae357634e487b7160e01b600052603260045260246000fd5b602002602001015183612203565b60005b8451811015610bc55760008281526016602052604090208551869083908110610b2d57634e487b7160e01b600052603260045260246000fd5b602090810291909101810151825460018101845560009384528284200180546001600160a01b0319166001600160a01b0390921691909117905583825260179052604090208451859083908110610b9457634e487b7160e01b600052603260045260246000fd5b6020908102919091018101518254600181018455600093845291909220015580610bbd81613853565b915050610af4565b50508080610bd290613853565b9150506109d5565b5050505050565b606060008054610bf090613818565b80601f0160208091040260200160405190810160405280929190818152602001828054610c1c90613818565b8015610c695780601f10610c3e57610100808354040283529160200191610c69565b820191906000526020600020905b815481529060010190602001808311610c4c57829003601f168201915b5050505050905090565b6000610c7e826123aa565b506000908152600460205260409020546001600160a01b031690565b6000610ca5826115ac565b9050806001600160a01b0316836001600160a01b03161415610d185760405162461bcd60e51b815260206004820152602160248201527f4552433732313a20617070726f76616c20746f2063757272656e74206f776e656044820152603960f91b60648201526084015b60405180910390fd5b336001600160a01b0382161480610d345750610d348133610918565b610da65760405162461bcd60e51b815260206004820152603e60248201527f4552433732313a20617070726f76652063616c6c6572206973206e6f7420746f60448201527f6b656e206f776e6572206e6f7220617070726f76656420666f7220616c6c00006064820152608401610d0f565b610db08383612409565b505050565b610dbd6120f5565b601055565b610dca6120f5565b6001600160a01b038116610df05760405162461bcd60e51b8152600401610d0f90613663565b601180546001600160a01b0319166001600160a01b0392909216919091179055565b6000600e543414610e595760405162461bcd60e51b81526020600482015260116024820152702bb937b733903b30b63ab29039b2b73a1760791b6044820152606401610d0f565b610e67601980546001019055565b6000610e7260195490565b9050610e7e338261214f565b610e888186612169565b336001600160a01b03167fc1177815a22ab58cdf6e40a80dfe322e9d00b7977bd78634869752fed8082f568287604051610ec39291906136f3565b60405180910390a26018819055600d546040516001600160a01b03909116903480156108fc02916000818181858888f19350505050158015610f09573d6000803e3d6000fd5b50600d54600e546040805184815260208101929092523482820152516001600160a01b03909216917f2c85649ff77c5863a48ed3ea80337f66e69f9e165712ae535be68a1a83532df19181900360600190a260005b845181101561102f5760008281526016602052604090208551869083908110610f9757634e487b7160e01b600052603260045260246000fd5b602090810291909101810151825460018101845560009384528284200180546001600160a01b0319166001600160a01b0390921691909117905583825260179052604090208451859083908110610ffe57634e487b7160e01b600052603260045260246000fd5b602090810291909101810151825460018101845560009384529190922001558061102781613853565b915050610f5e565b50949350505050565b6110423382612477565b61105e5760405162461bcd60e51b8152600401610d0f906136a5565b610db0838383612203565b60006110748361160c565b82106110d65760405162461bcd60e51b815260206004820152602b60248201527f455243373231456e756d657261626c653a206f776e657220696e646578206f7560448201526a74206f6620626f756e647360a81b6064820152608401610d0f565b506001600160a01b03919091166000908152600760209081526040808320938352929052205490565b6111076120f5565b60405133904780156108fc02916000818181858888f19350505050158015611133573d6000803e3d6000fd5b50565b610db083838360405180602001604052806000815250611a60565b6000818152601760209081526040918290208054835181840281018401909452808452606093928301828280156111a757602002820191906000526020600020905b815481526020019060010190808311611193575b50505050509050919050565b60006111be60095490565b82106112215760405162461bcd60e51b815260206004820152602c60248201527f455243373231456e756d657261626c653a20676c6f62616c20696e646578206f60448201526b7574206f6620626f756e647360a01b6064820152608401610d0f565b6009828154811061124257634e487b7160e01b600052603260045260246000fd5b90600052602060002001549050919050565b6013546001600160a01b031633146112ae5760405162461bcd60e51b815260206004820181905260248201527f63616c6c6572206973206e6f74207468652053686f7774696d654d696e7465726044820152606401610d0f565b60005b8451811015610bda576112c8601980546001019055565b60006112d360195490565b90506112df338261214f565b6113108187848151811061130357634e487b7160e01b600052603260045260246000fd5b6020026020010151612169565b80601881905550604051806080016040528082815260200186848151811061134857634e487b7160e01b600052603260045260246000fd5b602002602001015166038d7ea4c6800061136291906137b6565b815233602080830182905260006040938401819052858152601582528390208451815590840151600182015591830151600290920180546060909401511515600160a01b026001600160a81b03199094166001600160a01b03939093169290921792909217905586517fbd69fd66a4a4463f2c3f9a0e0ac6c9ffc2e16b58e76279e74813aaa70ec54ef490839089908690811061140f57634e487b7160e01b600052603260045260246000fd5b602002602001015188868151811061143757634e487b7160e01b600052603260045260246000fd5b602002602001015166038d7ea4c6800061145191906137b6565b6040516114609392919061370c565b60405180910390a2611473333083611038565b60005b845181101561154757600082815260166020526040902085518690839081106114af57634e487b7160e01b600052603260045260246000fd5b602090810291909101810151825460018101845560009384528284200180546001600160a01b0319166001600160a01b039092169190911790558382526017905260409020845185908390811061151657634e487b7160e01b600052603260045260246000fd5b602090810291909101810151825460018101845560009384529190922001558061153f81613853565b915050611476565b5050808061155490613853565b9150506112b1565b6115646120f5565b6001600160a01b03811661158a5760405162461bcd60e51b8152600401610d0f90613663565b601380546001600160a01b0319166001600160a01b0392909216919091179055565b6000818152600260205260408120546001600160a01b0316806109c45760405162461bcd60e51b8152602060048201526018602482015277115490cdcc8c4e881a5b9d985b1a59081d1bdad95b88125160421b6044820152606401610d0f565b60006001600160a01b0382166116765760405162461bcd60e51b815260206004820152602960248201527f4552433732313a2061646472657373207a65726f206973206e6f7420612076616044820152683634b21037bbb732b960b91b6064820152608401610d0f565b506001600160a01b031660009081526003602052604090205490565b61169a6120f5565b6116a460006124f6565b565b6116ae6120f5565b6001600160a01b03811661170f5760405162461bcd60e51b815260206004820152602260248201527f4d696e744665654163636f756e7420697320746865207a65726f206164647265604482015261737360f01b6064820152608401610d0f565b600d80546001600160a01b0319166001600160a01b0392909216919091179055565b606060018054610bf090613818565b6000818152601660209081526040918290208054835181840281018401909452808452606093928301828280156111a757602002820191906000526020600020905b81546001600160a01b031681526001909101906020018083116117825750505050509050919050565b6117b36120f5565b6117bd828261214f565b5050565b6117bd338383612548565b60606000806117db3385611069565b905060006117e882611ae4565b959194509092505050565b6002600c5414156118465760405162461bcd60e51b815260206004820152601f60248201527f5265656e7472616e637947756172643a207265656e7472616e742063616c6c006044820152606401610d0f565b6002600c55611854826115ac565b6001600160a01b0316336001600160a01b0316146118ac5760405162461bcd60e51b815260206004820152601560248201527413db9b1e481bdddb995c8818d85b88195b9c9bdb1b605a1b6044820152606401610d0f565b60008281526014602052604090205460ff16156119035760405162461bcd60e51b8152602060048201526015602482015274151a1a5cc81a5cc81bdb881d1a19481b585c9ad95d605a1b6044820152606401610d0f565b601254156119ff576012543410156119735760405162461bcd60e51b815260206004820152602d60248201527f4e6f7420656e6f75676820657468657220746f204e465420676976652061206760448201526c6966742066656520707269636560981b6064820152608401610d0f565b6011546040516001600160a01b03909116903480156108fc02916000818181858888f193505050501580156119ac573d6000803e3d6000fd5b506011546012546040805185815260208101929092523482820152516001600160a01b03909216917f90ebebbbff5f29748277cd06b9bd8e8b0248fa24bb5599b39a138c08573f2a439181900360600190a25b611a0a338284612203565b6040518281526001600160a01b0382169033907fd1dd150fda0c7f5df2d92696c78207bef5b5034392685d89a91f00c596accb1b9060200160405180910390a350506001600c55565b611a5b6120f5565b601255565b611a6a3383612477565b611a865760405162461bcd60e51b8152600401610d0f906136a5565b611a9284848484612617565b50505050565b60166020528160005260406000208181548110611ab457600080fd5b6000918252602090912001546001600160a01b03169150829050565b60606000611add83611ae4565b9392505050565b60606109c48261264a565b611af76120f5565b6001600160a01b038116611b5e5760405162461bcd60e51b815260206004820152602860248201527f536d50757263686173654665654163636f756e7420697320746865207a65726f604482015267206164647265737360c01b6064820152608401610d0f565b600f80546001600160a01b0319166001600160a01b0392909216919091179055565b611b886120f5565b600e55565b611b956120f5565b6001600160a01b038116611bfa5760405162461bcd60e51b815260206004820152602660248201527f4f776e61626c653a206e6577206f776e657220697320746865207a65726f206160448201526564647265737360d01b6064820152608401610d0f565b611133816124f6565b60176020528160005260406000208181548110611c1f57600080fd5b90600052602060002001600091509150505481565b6002600c541415611c875760405162461bcd60e51b815260206004820152601f60248201527f5265656e7472616e637947756172643a207265656e7472616e742063616c6c006044820152606401610d0f565b6002600c5560008181526015602052604090206001810154908215801590611cb157506019548311155b611cf25760405162461bcd60e51b8152602060048201526012602482015271125d195b48191bd95cdb89dd08195e1a5cdd60721b6044820152606401610d0f565b81341015611d5e5760405162461bcd60e51b815260206004820152603360248201527f4e6f7420656e6f75676820657468657220746f20636f766572206974656d20706044820152727269636520616e64206d61726b65742066656560681b6064820152608401610d0f565b6002810154600160a01b900460ff1615611da65760405162461bcd60e51b8152602060048201526009602482015268536f6c64206f75742160b81b6044820152606401610d0f565b600f546010546001600160a01b03909116906108fc90611dc7908590612753565b6040518115909202916000818181858888f19350505050158015611def573d6000803e3d6000fd5b50600f546010546001600160a01b03909116907f477c6cd22686034c4dbc667de8e6acf28114ab9091c28146beecd123a75d7eb2908590611e308682612753565b6040805193845260208401929092529082015260600160405180910390a2611e5a82601054612753565b611e6490836137d5565b915060005b600084815260166020526040902054811015612050576000848152601660205260409020805482908110611ead57634e487b7160e01b600052603260045260246000fd5b9060005260206000200160009054906101000a90046001600160a01b03166001600160a01b03166108fc611f1d85601760008981526020019081526020016000208581548110611f0d57634e487b7160e01b600052603260045260246000fd5b9060005260206000200154612753565b6040518115909202916000818181858888f19350505050158015611f45573d6000803e3d6000fd5b506000848152601660205260409020805482908110611f7457634e487b7160e01b600052603260045260246000fd5b60009182526020808320909101548683526017909152604090912080546001600160a01b03909216917f015c683e917da38b974e1b00a30c8d230b31edfd84e10572d8df716348182fe791879185908110611fdf57634e487b7160e01b600052603260045260246000fd5b906000526020600020015461202087601760008b81526020019081526020016000208781548110611f0d57634e487b7160e01b600052603260045260246000fd5b6040805193845260208401929092529082015260600160405180910390a28061204881613853565b915050611e69565b5060028101805460ff60a01b1916600160a01b179055612071303385612203565b6002810154600182015460405133926001600160a01b0316917fbc81372cb43eb63513389e5c68506a567e9a556d282896565280ad923d78f9b9916120be91888252602082015260400190565b60405180910390a350506001600c5550565b60006001600160e01b0319821663780e9d6360e01b14806109c457506109c4826127c1565b600b546001600160a01b031633146116a45760405162461bcd60e51b815260206004820181905260248201527f4f776e61626c653a2063616c6c6572206973206e6f7420746865206f776e65726044820152606401610d0f565b6117bd828260405180602001604052806000815250612811565b6000828152600260205260409020546001600160a01b03166121e45760405162461bcd60e51b815260206004820152602e60248201527f45524337323155524953746f726167653a2055524920736574206f66206e6f6e60448201526d32bc34b9ba32b73a103a37b5b2b760911b6064820152608401610d0f565b60008281526006602090815260409091208251610db092840190612ea9565b826001600160a01b0316612216826115ac565b6001600160a01b03161461227a5760405162461bcd60e51b815260206004820152602560248201527f4552433732313a207472616e736665722066726f6d20696e636f72726563742060448201526437bbb732b960d91b6064820152608401610d0f565b6001600160a01b0382166122dc5760405162461bcd60e51b8152602060048201526024808201527f4552433732313a207472616e7366657220746f20746865207a65726f206164646044820152637265737360e01b6064820152608401610d0f565b6122e7838383612844565b6122f2600082612409565b6001600160a01b038316600090815260036020526040812080546001929061231b9084906137d5565b90915550506001600160a01b038216600090815260036020526040812080546001929061234990849061378a565b909155505060008181526002602052604080822080546001600160a01b0319166001600160a01b0386811691821790925591518493918716917fddf252ad1be2c89b69c2b068fc378daa952ba7f163c4a11628f55a4df523b3ef91a4505050565b6000818152600260205260409020546001600160a01b03166111335760405162461bcd60e51b8152602060048201526018602482015277115490cdcc8c4e881a5b9d985b1a59081d1bdad95b88125160421b6044820152606401610d0f565b600081815260046020526040902080546001600160a01b0319166001600160a01b038416908117909155819061243e826115ac565b6001600160a01b03167f8c5be1e5ebec7d5bd14f71427d1e84f3dd0314c0f7b2291e5b200ac8c7c3b92560405160405180910390a45050565b600080612483836115ac565b9050806001600160a01b0316846001600160a01b031614806124ca57506001600160a01b0380821660009081526005602090815260408083209388168352929052205460ff165b806124ee5750836001600160a01b03166124e384610c73565b6001600160a01b0316145b949350505050565b600b80546001600160a01b038381166001600160a01b0319831681179093556040519116919082907f8be0079c531659141344cd1fd0a4f28419497f9722a3daafe3b4186f6b6457e090600090a35050565b816001600160a01b0316836001600160a01b031614156125aa5760405162461bcd60e51b815260206004820152601960248201527f4552433732313a20617070726f766520746f2063616c6c6572000000000000006044820152606401610d0f565b6001600160a01b03838116600081815260056020908152604080832094871680845294825291829020805460ff191686151590811790915591519182527f17307eab39ab6107e8899845ad3d59bd9653f200f220920489ca2b5937696c31910160405180910390a3505050565b612622848484612203565b61262e8484848461284f565b611a925760405162461bcd60e51b8152600401610d0f90613611565b6060612655826123aa565b6000828152600660205260408120805461266e90613818565b80601f016020809104026020016040519081016040528092919081815260200182805461269a90613818565b80156126e75780601f106126bc576101008083540402835291602001916126e7565b820191906000526020600020905b8154815290600101906020018083116126ca57829003601f168201915b50505050509050600061270560408051602081019091526000815290565b9050805160001415612718575092915050565b81511561274a5780826040516020016127329291906134eb565b60405160208183030381529060405292505050919050565b6124ee8461295c565b600082612763620f4240826137a2565b61277090620f42406137b6565b146127a95760405162461bcd60e51b81526020600482015260096024820152681d1bdbc81cdb585b1b60ba1b6044820152606401610d0f565b620f42406127b783856137b6565b611add91906137a2565b60006001600160e01b031982166380ac58cd60e01b14806127f257506001600160e01b03198216635b5e139f60e01b145b806109c457506301ffc9a760e01b6001600160e01b03198316146109c4565b61281b83836129cf565b612828600084848461284f565b610db05760405162461bcd60e51b8152600401610d0f90613611565b610db0838383612b1d565b60006001600160a01b0384163b1561295157604051630a85bd0160e11b81526001600160a01b0385169063150b7a029061289390339089908890889060040161351a565b602060405180830381600087803b1580156128ad57600080fd5b505af19250505080156128dd575060408051601f3d908101601f191682019092526128da91810190613334565b60015b612937573d80801561290b576040519150601f19603f3d011682016040523d82523d6000602084013e612910565b606091505b50805161292f5760405162461bcd60e51b8152600401610d0f90613611565b805181602001fd5b6001600160e01b031916630a85bd0160e11b1490506124ee565b506001949350505050565b6060612967826123aa565b600061297e60408051602081019091526000815290565b9050600081511161299e5760405180602001604052806000815250611add565b806129a884612bd5565b6040516020016129b99291906134eb565b6040516020818303038152906040529392505050565b6001600160a01b038216612a255760405162461bcd60e51b815260206004820181905260248201527f4552433732313a206d696e7420746f20746865207a65726f20616464726573736044820152606401610d0f565b6000818152600260205260409020546001600160a01b031615612a8a5760405162461bcd60e51b815260206004820152601c60248201527f4552433732313a20746f6b656e20616c7265616479206d696e746564000000006044820152606401610d0f565b612a9660008383612844565b6001600160a01b0382166000908152600360205260408120805460019290612abf90849061378a565b909155505060008181526002602052604080822080546001600160a01b0319166001600160a01b03861690811790915590518392907fddf252ad1be2c89b69c2b068fc378daa952ba7f163c4a11628f55a4df523b3ef908290a45050565b6001600160a01b038316612b7857612b7381600980546000838152600a60205260408120829055600182018355919091527f6e1540171b6c0c960b71a7020d9f60077f6af931a8bbf590da0223dacf75c7af0155565b612b9b565b816001600160a01b0316836001600160a01b031614612b9b57612b9b8382612cef565b6001600160a01b038216612bb257610db081612d8c565b826001600160a01b0316826001600160a01b031614610db057610db08282612e65565b606081612bf95750506040805180820190915260018152600360fc1b602082015290565b8160005b8115612c235780612c0d81613853565b9150612c1c9050600a836137a2565b9150612bfd565b60008167ffffffffffffffff811115612c4c57634e487b7160e01b600052604160045260246000fd5b6040519080825280601f01601f191660200182016040528015612c76576020820181803683370190505b5090505b84156124ee57612c8b6001836137d5565b9150612c98600a8661386e565b612ca390603061378a565b60f81b818381518110612cc657634e487b7160e01b600052603260045260246000fd5b60200101906001600160f81b031916908160001a905350612ce8600a866137a2565b9450612c7a565b60006001612cfc8461160c565b612d0691906137d5565b600083815260086020526040902054909150808214612d59576001600160a01b03841660009081526007602090815260408083208584528252808320548484528184208190558352600890915290208190555b5060009182526008602090815260408084208490556001600160a01b039094168352600781528383209183525290812055565b600954600090612d9e906001906137d5565b6000838152600a602052604081205460098054939450909284908110612dd457634e487b7160e01b600052603260045260246000fd5b906000526020600020015490508060098381548110612e0357634e487b7160e01b600052603260045260246000fd5b6000918252602080832090910192909255828152600a90915260408082208490558582528120556009805480612e4957634e487b7160e01b600052603160045260246000fd5b6001900381819060005260206000200160009055905550505050565b6000612e708361160c565b6001600160a01b039093166000908152600760209081526040808320868452825280832085905593825260089052919091209190915550565b828054612eb590613818565b90600052602060002090601f016020900481019282612ed75760008555612f1d565b82601f10612ef057805160ff1916838001178555612f1d565b82800160010185558215612f1d579182015b82811115612f1d578251825591602001919060010190612f02565b50612f29929150612f2d565b5090565b5b80821115612f295760008155600101612f2e565b600067ffffffffffffffff831115612f5c57612f5c6138ae565b612f6f601f8401601f1916602001613735565b9050828152838383011115612f8357600080fd5b828260208301376000602084830101529392505050565b80356001600160a01b0381168114612fb157600080fd5b919050565b600082601f830112612fc6578081fd5b81356020612fdb612fd683613766565b613735565b80838252828201915082860187848660051b8901011115612ffa578586fd5b855b8581101561301f5761300d82612f9a565b84529284019290840190600101612ffc565b5090979650505050505050565b600082601f83011261303c578081fd5b8135602061304c612fd683613766565b80838252828201915082860187848660051b890101111561306b578586fd5b855b8581101561301f5781358452928401929084019060010161306d565b80358015158114612fb157600080fd5b600082601f8301126130a9578081fd5b611add83833560208501612f42565b6000602082840312156130c9578081fd5b611add82612f9a565b600080604083850312156130e4578081fd5b6130ed83612f9a565b91506130fb60208401612f9a565b90509250929050565b600080600060608486031215613118578081fd5b61312184612f9a565b925061312f60208501612f9a565b9150604084013590509250925092565b60008060008060808587031215613154578081fd5b61315d85612f9a565b935061316b60208601612f9a565b925060408501359150606085013567ffffffffffffffff81111561318d578182fd5b8501601f8101871361319d578182fd5b6131ac87823560208401612f42565b91505092959194509250565b600080604083850312156131ca578182fd5b6131d383612f9a565b91506130fb60208401613089565b600080604083850312156131f3578182fd5b6131fc83612f9a565b946020939093013593505050565b6000806000806080858703121561321f578081fd5b843567ffffffffffffffff80821115613236578283fd5b818701915087601f830112613249578283fd5b81356020613259612fd683613766565b8083825282820191508286018c848660051b8901011115613278578788fd5b875b858110156132b15781358781111561329057898afd5b61329e8f87838c0101613099565b855250928401929084019060010161327a565b509099505050880135925050808211156132c9578283fd5b6132d58883890161302c565b945060408701359150808211156132ea578283fd5b6132f688838901612fb6565b9350606087013591508082111561330b578283fd5b506131ac8782880161302c565b600060208284031215613329578081fd5b8135611add816138c4565b600060208284031215613345578081fd5b8151611add816138c4565b60008060008060808587031215613365578182fd5b843567ffffffffffffffff8082111561337c578384fd5b61338888838901613099565b9550602087013591508082111561339d578384fd5b6133a988838901612fb6565b945060408701359150808211156132ea578384fd5b6000806000606084860312156133d2578081fd5b833567ffffffffffffffff808211156133e9578283fd5b6133f587838801613099565b9450602086013591508082111561340a578283fd5b61341687838801612fb6565b9350604086013591508082111561342b578283fd5b506134388682870161302c565b9150509250925092565b600060208284031215613453578081fd5b5035919050565b6000806040838503121561346c578182fd5b823591506130fb60208401612f9a565b6000806040838503121561348e578182fd5b823591506130fb60208401613089565b600080604083850312156134b0578182fd5b50508035926020909101359150565b600081518084526134d78160208601602086016137ec565b601f01601f19169290920160200192915050565b600083516134fd8184602088016137ec565b8351908301906135118183602088016137ec565b01949350505050565b6001600160a01b038581168252841660208201526040810183905260806060820181905260009061354d908301846134bf565b9695505050505050565b6020808252825182820181905260009190848201906040850190845b818110156135985783516001600160a01b031683529284019291840191600101613573565b50909695505050505050565b6020808252825182820181905260009190848201906040850190845b81811015613598578351835292840192918401916001016135c0565b602081526000611add60208301846134bf565b60408152600061360260408301856134bf565b90508260208301529392505050565b60208082526032908201527f4552433732313a207472616e7366657220746f206e6f6e20455243373231526560408201527131b2b4bb32b91034b6b83632b6b2b73a32b960711b606082015260800190565b60208082526022908201527f476966744665654163636f756e7420697320746865207a65726f206164647265604082015261737360f01b606082015260800190565b6020808252602e908201527f4552433732313a2063616c6c6572206973206e6f7420746f6b656e206f776e6560408201526d1c881b9bdc88185c1c1c9bdd995960921b606082015260800190565b8281526040602082015260006124ee60408301846134bf565b83815260606020820152600061372560608301856134bf565b9050826040830152949350505050565b604051601f8201601f1916810167ffffffffffffffff8111828210171561375e5761375e6138ae565b604052919050565b600067ffffffffffffffff821115613780576137806138ae565b5060051b60200190565b6000821982111561379d5761379d613882565b500190565b6000826137b1576137b1613898565b500490565b60008160001904831182151516156137d0576137d0613882565b500290565b6000828210156137e7576137e7613882565b500390565b60005b838110156138075781810151838201526020016137ef565b83811115611a925750506000910152565b600181811c9082168061382c57607f821691505b6020821081141561384d57634e487b7160e01b600052602260045260246000fd5b50919050565b600060001982141561386757613867613882565b5060010190565b60008261387d5761387d613898565b500690565b634e487b7160e01b600052601160045260246000fd5b634e487b7160e01b600052601260045260246000fd5b634e487b7160e01b600052604160045260246000fd5b6001600160e01b03198116811461113357600080fdfea26469706673582212200e22ce0003d3c548737d8f01a7348a48e47a34c677132113a7a680c503acfa7b64736f6c63430008040033",
    "linkReferences": {},
    "deployedLinkReferences": {}
}