{
    "contractAddress": "0xACf1c94B65D5Caa416Bbc8Eec213b304327241F1",
    "_format": "hh-sol-artifact-1",
    "contractName": "MillimxNft",
    "sourceName": "contracts/MillimxNft.sol",
    "abi": [
        {
            "inputs": [
                {
                    "internalType": "uint256",
                    "name": "_mintPrice",
                    "type": "uint256"
                },
                {
                    "internalType": "uint256",
                    "name": "_feePercent",
                    "type": "uint256"
                }
            ],
            "stateMutability": "nonpayable",
            "type": "constructor"
        },
        {
            "anonymous": false,
            "inputs": [
                {
                    "indexed": true,
                    "internalType": "address",
                    "name": "owner",
                    "type": "address"
                },
                {
                    "indexed": true,
                    "internalType": "address",
                    "name": "approved",
                    "type": "address"
                },
                {
                    "indexed": true,
                    "internalType": "uint256",
                    "name": "tokenId",
                    "type": "uint256"
                }
            ],
            "name": "Approval",
            "type": "event"
        },
        {
            "anonymous": false,
            "inputs": [
                {
                    "indexed": true,
                    "internalType": "address",
                    "name": "owner",
                    "type": "address"
                },
                {
                    "indexed": true,
                    "internalType": "address",
                    "name": "operator",
                    "type": "address"
                },
                {
                    "indexed": false,
                    "internalType": "bool",
                    "name": "approved",
                    "type": "bool"
                }
            ],
            "name": "ApprovalForAll",
            "type": "event"
        },
        {
            "anonymous": false,
            "inputs": [
                {
                    "indexed": false,
                    "internalType": "uint256",
                    "name": "tokenId",
                    "type": "uint256"
                },
                {
                    "indexed": false,
                    "internalType": "string",
                    "name": "tokenURI",
                    "type": "string"
                },
                {
                    "indexed": true,
                    "internalType": "address",
                    "name": "minter",
                    "type": "address"
                }
            ],
            "name": "Minted",
            "type": "event"
        },
        {
            "anonymous": false,
            "inputs": [
                {
                    "indexed": false,
                    "internalType": "uint256",
                    "name": "tokenId",
                    "type": "uint256"
                },
                {
                    "indexed": true,
                    "internalType": "address",
                    "name": "fromAddress",
                    "type": "address"
                },
                {
                    "indexed": true,
                    "internalType": "address",
                    "name": "toAddress",
                    "type": "address"
                }
            ],
            "name": "NormalNftTransfer",
            "type": "event"
        },
        {
            "anonymous": false,
            "inputs": [
                {
                    "indexed": true,
                    "internalType": "address",
                    "name": "previousOwner",
                    "type": "address"
                },
                {
                    "indexed": true,
                    "internalType": "address",
                    "name": "newOwner",
                    "type": "address"
                }
            ],
            "name": "OwnershipTransferred",
            "type": "event"
        },
        {
            "anonymous": false,
            "inputs": [
                {
                    "indexed": false,
                    "internalType": "uint256",
                    "name": "tokenId",
                    "type": "uint256"
                },
                {
                    "indexed": false,
                    "internalType": "uint256",
                    "name": "price",
                    "type": "uint256"
                },
                {
                    "indexed": true,
                    "internalType": "address",
                    "name": "seller",
                    "type": "address"
                },
                {
                    "indexed": true,
                    "internalType": "address",
                    "name": "buyer",
                    "type": "address"
                }
            ],
            "name": "ShowTimeBought",
            "type": "event"
        },
        {
            "anonymous": false,
            "inputs": [
                {
                    "indexed": false,
                    "internalType": "uint256",
                    "name": "tokenId",
                    "type": "uint256"
                },
                {
                    "indexed": false,
                    "internalType": "string",
                    "name": "tokenURI",
                    "type": "string"
                },
                {
                    "indexed": false,
                    "internalType": "uint256",
                    "name": "price",
                    "type": "uint256"
                },
                {
                    "indexed": true,
                    "internalType": "address",
                    "name": "minter",
                    "type": "address"
                }
            ],
            "name": "ShowTimeMinted",
            "type": "event"
        },
        {
            "anonymous": false,
            "inputs": [
                {
                    "indexed": false,
                    "internalType": "uint256",
                    "name": "tokenId",
                    "type": "uint256"
                },
                {
                    "indexed": true,
                    "internalType": "address",
                    "name": "toAddress",
                    "type": "address"
                }
            ],
            "name": "ShowTimeNftTransfer",
            "type": "event"
        },
        {
            "anonymous": false,
            "inputs": [
                {
                    "indexed": true,
                    "internalType": "address",
                    "name": "from",
                    "type": "address"
                },
                {
                    "indexed": true,
                    "internalType": "address",
                    "name": "to",
                    "type": "address"
                },
                {
                    "indexed": true,
                    "internalType": "uint256",
                    "name": "tokenId",
                    "type": "uint256"
                }
            ],
            "name": "Transfer",
            "type": "event"
        },
        {
            "inputs": [
                {
                    "internalType": "address",
                    "name": "to",
                    "type": "address"
                },
                {
                    "internalType": "uint256",
                    "name": "tokenId",
                    "type": "uint256"
                }
            ],
            "name": "approve",
            "outputs": [],
            "stateMutability": "nonpayable",
            "type": "function"
        },
        {
            "inputs": [
                {
                    "internalType": "address",
                    "name": "owner",
                    "type": "address"
                }
            ],
            "name": "balanceOf",
            "outputs": [
                {
                    "internalType": "uint256",
                    "name": "",
                    "type": "uint256"
                }
            ],
            "stateMutability": "view",
            "type": "function"
        },
        {
            "inputs": [],
            "name": "feeAccount",
            "outputs": [
                {
                    "internalType": "address payable",
                    "name": "",
                    "type": "address"
                }
            ],
            "stateMutability": "view",
            "type": "function"
        },
        {
            "inputs": [],
            "name": "feePercent",
            "outputs": [
                {
                    "internalType": "uint256",
                    "name": "",
                    "type": "uint256"
                }
            ],
            "stateMutability": "view",
            "type": "function"
        },
        {
            "inputs": [
                {
                    "internalType": "uint256",
                    "name": "tokenId",
                    "type": "uint256"
                }
            ],
            "name": "getApproved",
            "outputs": [
                {
                    "internalType": "address",
                    "name": "",
                    "type": "address"
                }
            ],
            "stateMutability": "view",
            "type": "function"
        },
        {
            "inputs": [
                {
                    "internalType": "uint256",
                    "name": "_tokenId",
                    "type": "uint256"
                }
            ],
            "name": "getIsOnMarket",
            "outputs": [
                {
                    "internalType": "bool",
                    "name": "",
                    "type": "bool"
                }
            ],
            "stateMutability": "view",
            "type": "function"
        },
        {
            "inputs": [
                {
                    "internalType": "uint256",
                    "name": "_tokenId",
                    "type": "uint256"
                }
            ],
            "name": "getMyNftItemDetail",
            "outputs": [
                {
                    "internalType": "string",
                    "name": "",
                    "type": "string"
                }
            ],
            "stateMutability": "view",
            "type": "function"
        },
        {
            "inputs": [
                {
                    "internalType": "uint256",
                    "name": "_balanceIndex",
                    "type": "uint256"
                }
            ],
            "name": "getMyNftItems",
            "outputs": [
                {
                    "internalType": "string",
                    "name": "",
                    "type": "string"
                },
                {
                    "internalType": "uint256",
                    "name": "",
                    "type": "uint256"
                }
            ],
            "stateMutability": "view",
            "type": "function"
        },
        {
            "inputs": [
                {
                    "internalType": "uint256",
                    "name": "_tokenId",
                    "type": "uint256"
                }
            ],
            "name": "getSplitAddress",
            "outputs": [
                {
                    "internalType": "address[]",
                    "name": "",
                    "type": "address[]"
                }
            ],
            "stateMutability": "view",
            "type": "function"
        },
        {
            "inputs": [
                {
                    "internalType": "uint256",
                    "name": "_tokenId",
                    "type": "uint256"
                }
            ],
            "name": "getSplitPercent",
            "outputs": [
                {
                    "internalType": "uint256[]",
                    "name": "",
                    "type": "uint256[]"
                }
            ],
            "stateMutability": "view",
            "type": "function"
        },
        {
            "inputs": [
                {
                    "internalType": "address",
                    "name": "owner",
                    "type": "address"
                },
                {
                    "internalType": "address",
                    "name": "operator",
                    "type": "address"
                }
            ],
            "name": "isApprovedForAll",
            "outputs": [
                {
                    "internalType": "bool",
                    "name": "",
                    "type": "bool"
                }
            ],
            "stateMutability": "view",
            "type": "function"
        },
        {
            "inputs": [],
            "name": "mintPrice",
            "outputs": [
                {
                    "internalType": "uint256",
                    "name": "",
                    "type": "uint256"
                }
            ],
            "stateMutability": "view",
            "type": "function"
        },
        {
            "inputs": [
                {
                    "internalType": "string",
                    "name": "_tokenURI",
                    "type": "string"
                },
                {
                    "internalType": "address[]",
                    "name": "_splitAddress",
                    "type": "address[]"
                },
                {
                    "internalType": "uint256[]",
                    "name": "_splitPercent",
                    "type": "uint256[]"
                }
            ],
            "name": "minting",
            "outputs": [
                {
                    "internalType": "uint256",
                    "name": "",
                    "type": "uint256"
                }
            ],
            "stateMutability": "payable",
            "type": "function"
        },
        {
            "inputs": [],
            "name": "name",
            "outputs": [
                {
                    "internalType": "string",
                    "name": "",
                    "type": "string"
                }
            ],
            "stateMutability": "view",
            "type": "function"
        },
        {
            "inputs": [
                {
                    "internalType": "uint256",
                    "name": "_tokenId",
                    "type": "uint256"
                },
                {
                    "internalType": "address",
                    "name": "toAddress",
                    "type": "address"
                }
            ],
            "name": "normalNftTransfer",
            "outputs": [],
            "stateMutability": "payable",
            "type": "function"
        },
        {
            "inputs": [],
            "name": "normalNftTransferFeePrice",
            "outputs": [
                {
                    "internalType": "uint256",
                    "name": "",
                    "type": "uint256"
                }
            ],
            "stateMutability": "view",
            "type": "function"
        },
        {
            "inputs": [],
            "name": "owner",
            "outputs": [
                {
                    "internalType": "address",
                    "name": "",
                    "type": "address"
                }
            ],
            "stateMutability": "view",
            "type": "function"
        },
        {
            "inputs": [
                {
                    "internalType": "uint256",
                    "name": "tokenId",
                    "type": "uint256"
                }
            ],
            "name": "ownerOf",
            "outputs": [
                {
                    "internalType": "address",
                    "name": "",
                    "type": "address"
                }
            ],
            "stateMutability": "view",
            "type": "function"
        },
        {
            "inputs": [],
            "name": "renounceOwnership",
            "outputs": [],
            "stateMutability": "nonpayable",
            "type": "function"
        },
        {
            "inputs": [
                {
                    "internalType": "address",
                    "name": "to",
                    "type": "address"
                },
                {
                    "internalType": "uint256",
                    "name": "tokenId",
                    "type": "uint256"
                }
            ],
            "name": "safeMint",
            "outputs": [],
            "stateMutability": "nonpayable",
            "type": "function"
        },
        {
            "inputs": [
                {
                    "internalType": "address",
                    "name": "from",
                    "type": "address"
                },
                {
                    "internalType": "address",
                    "name": "to",
                    "type": "address"
                },
                {
                    "internalType": "uint256",
                    "name": "tokenId",
                    "type": "uint256"
                }
            ],
            "name": "safeTransferFrom",
            "outputs": [],
            "stateMutability": "nonpayable",
            "type": "function"
        },
        {
            "inputs": [
                {
                    "internalType": "address",
                    "name": "from",
                    "type": "address"
                },
                {
                    "internalType": "address",
                    "name": "to",
                    "type": "address"
                },
                {
                    "internalType": "uint256",
                    "name": "tokenId",
                    "type": "uint256"
                },
                {
                    "internalType": "bytes",
                    "name": "data",
                    "type": "bytes"
                }
            ],
            "name": "safeTransferFrom",
            "outputs": [],
            "stateMutability": "nonpayable",
            "type": "function"
        },
        {
            "inputs": [
                {
                    "internalType": "address",
                    "name": "operator",
                    "type": "address"
                },
                {
                    "internalType": "bool",
                    "name": "approved",
                    "type": "bool"
                }
            ],
            "name": "setApprovalForAll",
            "outputs": [],
            "stateMutability": "nonpayable",
            "type": "function"
        },
        {
            "inputs": [
                {
                    "internalType": "uint256",
                    "name": "_feePercent",
                    "type": "uint256"
                }
            ],
            "name": "setFeePercent",
            "outputs": [],
            "stateMutability": "nonpayable",
            "type": "function"
        },
        {
            "inputs": [
                {
                    "internalType": "uint256",
                    "name": "_tokenId",
                    "type": "uint256"
                },
                {
                    "internalType": "bool",
                    "name": "_isOnMarket",
                    "type": "bool"
                }
            ],
            "name": "setIsOnMarket",
            "outputs": [],
            "stateMutability": "nonpayable",
            "type": "function"
        },
        {
            "inputs": [
                {
                    "internalType": "uint256",
                    "name": "_mintPrice",
                    "type": "uint256"
                }
            ],
            "name": "setMintPrice",
            "outputs": [],
            "stateMutability": "nonpayable",
            "type": "function"
        },
        {
            "inputs": [
                {
                    "internalType": "uint256",
                    "name": "_normalNftTransferFeePrice",
                    "type": "uint256"
                }
            ],
            "name": "setNormalNftTransferFeePrice",
            "outputs": [],
            "stateMutability": "nonpayable",
            "type": "function"
        },
        {
            "inputs": [
                {
                    "internalType": "uint256",
                    "name": "",
                    "type": "uint256"
                }
            ],
            "name": "showTimeItems",
            "outputs": [
                {
                    "internalType": "uint256",
                    "name": "tokenId",
                    "type": "uint256"
                },
                {
                    "internalType": "uint256",
                    "name": "price",
                    "type": "uint256"
                },
                {
                    "internalType": "address payable",
                    "name": "seller",
                    "type": "address"
                },
                {
                    "internalType": "bool",
                    "name": "sold",
                    "type": "bool"
                }
            ],
            "stateMutability": "view",
            "type": "function"
        },
        {
            "inputs": [
                {
                    "internalType": "string[]",
                    "name": "_tokenURIs",
                    "type": "string[]"
                },
                {
                    "internalType": "uint256[]",
                    "name": "_sellPrices",
                    "type": "uint256[]"
                },
                {
                    "internalType": "address[]",
                    "name": "_splitAddress",
                    "type": "address[]"
                },
                {
                    "internalType": "uint256[]",
                    "name": "_splitPercent",
                    "type": "uint256[]"
                }
            ],
            "name": "showTimeMinting",
            "outputs": [],
            "stateMutability": "payable",
            "type": "function"
        },
        {
            "inputs": [
                {
                    "internalType": "uint256",
                    "name": "_tokenId",
                    "type": "uint256"
                },
                {
                    "internalType": "address",
                    "name": "toAddress",
                    "type": "address"
                }
            ],
            "name": "showTimeNftTransfer",
            "outputs": [],
            "stateMutability": "payable",
            "type": "function"
        },
        {
            "inputs": [
                {
                    "internalType": "uint256",
                    "name": "_tokenId",
                    "type": "uint256"
                }
            ],
            "name": "showTimePurchase",
            "outputs": [],
            "stateMutability": "payable",
            "type": "function"
        },
        {
            "inputs": [
                {
                    "internalType": "uint256",
                    "name": "",
                    "type": "uint256"
                },
                {
                    "internalType": "uint256",
                    "name": "",
                    "type": "uint256"
                }
            ],
            "name": "splitAddress",
            "outputs": [
                {
                    "internalType": "address",
                    "name": "",
                    "type": "address"
                }
            ],
            "stateMutability": "view",
            "type": "function"
        },
        {
            "inputs": [
                {
                    "internalType": "uint256",
                    "name": "",
                    "type": "uint256"
                },
                {
                    "internalType": "uint256",
                    "name": "",
                    "type": "uint256"
                }
            ],
            "name": "splitPercent",
            "outputs": [
                {
                    "internalType": "uint256",
                    "name": "",
                    "type": "uint256"
                }
            ],
            "stateMutability": "view",
            "type": "function"
        },
        {
            "inputs": [
                {
                    "internalType": "bytes4",
                    "name": "interfaceId",
                    "type": "bytes4"
                }
            ],
            "name": "supportsInterface",
            "outputs": [
                {
                    "internalType": "bool",
                    "name": "",
                    "type": "bool"
                }
            ],
            "stateMutability": "view",
            "type": "function"
        },
        {
            "inputs": [],
            "name": "symbol",
            "outputs": [
                {
                    "internalType": "string",
                    "name": "",
                    "type": "string"
                }
            ],
            "stateMutability": "view",
            "type": "function"
        },
        {
            "inputs": [
                {
                    "internalType": "uint256",
                    "name": "index",
                    "type": "uint256"
                }
            ],
            "name": "tokenByIndex",
            "outputs": [
                {
                    "internalType": "uint256",
                    "name": "",
                    "type": "uint256"
                }
            ],
            "stateMutability": "view",
            "type": "function"
        },
        {
            "inputs": [],
            "name": "tokenCount",
            "outputs": [
                {
                    "internalType": "uint256",
                    "name": "_value",
                    "type": "uint256"
                }
            ],
            "stateMutability": "view",
            "type": "function"
        },
        {
            "inputs": [
                {
                    "internalType": "address",
                    "name": "owner",
                    "type": "address"
                },
                {
                    "internalType": "uint256",
                    "name": "index",
                    "type": "uint256"
                }
            ],
            "name": "tokenOfOwnerByIndex",
            "outputs": [
                {
                    "internalType": "uint256",
                    "name": "",
                    "type": "uint256"
                }
            ],
            "stateMutability": "view",
            "type": "function"
        },
        {
            "inputs": [
                {
                    "internalType": "uint256",
                    "name": "tokenId",
                    "type": "uint256"
                }
            ],
            "name": "tokenURI",
            "outputs": [
                {
                    "internalType": "string",
                    "name": "",
                    "type": "string"
                }
            ],
            "stateMutability": "view",
            "type": "function"
        },
        {
            "inputs": [],
            "name": "totalSupplied",
            "outputs": [
                {
                    "internalType": "uint256",
                    "name": "",
                    "type": "uint256"
                }
            ],
            "stateMutability": "view",
            "type": "function"
        },
        {
            "inputs": [],
            "name": "totalSupply",
            "outputs": [
                {
                    "internalType": "uint256",
                    "name": "",
                    "type": "uint256"
                }
            ],
            "stateMutability": "view",
            "type": "function"
        },
        {
            "inputs": [
                {
                    "internalType": "address",
                    "name": "from",
                    "type": "address"
                },
                {
                    "internalType": "address",
                    "name": "to",
                    "type": "address"
                },
                {
                    "internalType": "uint256",
                    "name": "tokenId",
                    "type": "uint256"
                }
            ],
            "name": "transferFrom",
            "outputs": [],
            "stateMutability": "nonpayable",
            "type": "function"
        },
        {
            "inputs": [
                {
                    "internalType": "address",
                    "name": "newOwner",
                    "type": "address"
                }
            ],
            "name": "transferOwnership",
            "outputs": [],
            "stateMutability": "nonpayable",
            "type": "function"
        },
        {
            "inputs": [],
            "name": "withdraw",
            "outputs": [],
            "stateMutability": "payable",
            "type": "function"
        }
    ],
    "bytecode": "0x60a06040523480156200001157600080fd5b5060405162005ad338038062005ad38339818101604052810190620000379190620002e9565b6040518060400160405280600881526020017f4d696c6c696d3a580000000000000000000000000000000000000000000000008152506040518060400160405280600381526020017f4d4c5800000000000000000000000000000000000000000000000000000000008152508160009080519060200190620000bb92919062000222565b508060019080519060200190620000d492919062000222565b505050620000f7620000eb6200015460201b60201c565b6200015c60201b60201c565b6001600c819055508160128190555080600d819055503373ffffffffffffffffffffffffffffffffffffffff1660808173ffffffffffffffffffffffffffffffffffffffff1660601b8152505060006015819055505050620003b3565b600033905090565b6000600b60009054906101000a900473ffffffffffffffffffffffffffffffffffffffff16905081600b60006101000a81548173ffffffffffffffffffffffffffffffffffffffff021916908373ffffffffffffffffffffffffffffffffffffffff1602179055508173ffffffffffffffffffffffffffffffffffffffff168173ffffffffffffffffffffffffffffffffffffffff167f8be0079c531659141344cd1fd0a4f28419497f9722a3daafe3b4186f6b6457e060405160405180910390a35050565b828054620002309062000334565b90600052602060002090601f016020900481019282620002545760008555620002a0565b82601f106200026f57805160ff1916838001178555620002a0565b82800160010185558215620002a0579182015b828111156200029f57825182559160200191906001019062000282565b5b509050620002af9190620002b3565b5090565b5b80821115620002ce576000816000905550600101620002b4565b5090565b600081519050620002e38162000399565b92915050565b60008060408385031215620002fd57600080fd5b60006200030d85828601620002d2565b92505060206200032085828601620002d2565b9150509250929050565b6000819050919050565b600060028204905060018216806200034d57607f821691505b602082108114156200036457620003636200036a565b5b50919050565b7f4e487b7100000000000000000000000000000000000000000000000000000000600052602260045260246000fd5b620003a4816200032a565b8114620003b057600080fd5b50565b60805160601c6156fa620003d96000396000818161174e015261200801526156fa6000f3fe6080604052600436106102675760003560e01c80637ce3489b11610144578063adabe201116100b6578063c87b56dd1161007a578063c87b56dd1461094d578063e985e9c51461098a578063f2fde38b146109c7578063f4a0a528146109f0578063fa3b435d14610a19578063ffe6e23a14610a5657610267565b8063adabe20114610841578063b88d4fde14610881578063be0a073b146108aa578063c344d897146108d3578063c4e68ccf1461091057610267565b80639f181b5e116101085780639f181b5e14610720578063a07896f81461074b578063a144819414610788578063a22cb465146107b1578063a27b467d146107da578063ab8660621461080357610267565b80637ce3489b1461065a5780637fd6f15c146106835780638da5cb5b146106ae57806395d89b41146106d95780639805c9701461070457610267565b806345b06526116101dd5780636352211e116101a15780636352211e146105575780636572dea71461059457806365e17c9d146105b05780636817c76c146105db57806370a0823114610606578063715018a61461064357610267565b806345b065261461046b5780634d6727b6146104a85780634f6ccce7146104d357806351dfaae014610510578063630fd0ac1461052c57610267565b806318160ddd1161022f57806318160ddd146103775780631f2aa2f5146103a257806323b872dd146103d25780632f745c59146103fb5780633ccfd60b1461043857806342842e0e1461044257610267565b806301ffc9a71461026c57806305dcd1ff146102a957806306fdde03146102e6578063081812fc14610311578063095ea7b31461034e575b600080fd5b34801561027857600080fd5b50610293600480360381019061028e9190613f16565b610a72565b6040516102a091906146f7565b60405180910390f35b3480156102b557600080fd5b506102d060048036038101906102cb9190613fff565b610a84565b6040516102dd91906146f7565b60405180910390f35b3480156102f257600080fd5b506102fb610aae565b6040516103089190614712565b60405180910390f35b34801561031d57600080fd5b5061033860048036038101906103339190613fff565b610b40565b6040516103459190614631565b60405180910390f35b34801561035a57600080fd5b5061037560048036038101906103709190613e17565b610b86565b005b34801561038357600080fd5b5061038c610c9e565b6040516103999190614a64565b60405180910390f35b6103bc60048036038101906103b79190613f68565b610cab565b6040516103c99190614a64565b60405180910390f35b3480156103de57600080fd5b506103f960048036038101906103f49190613d11565b610ecd565b005b34801561040757600080fd5b50610422600480360381019061041d9190613e17565b610f2d565b60405161042f9190614a64565b60405180910390f35b610440610fd2565b005b34801561044e57600080fd5b5061046960048036038101906104649190613d11565b611023565b005b34801561047757600080fd5b50610492600480360381019061048d9190613fff565b611043565b60405161049f91906146d5565b60405180910390f35b3480156104b457600080fd5b506104bd6110ae565b6040516104ca9190614a64565b60405180910390f35b3480156104df57600080fd5b506104fa60048036038101906104f59190613fff565b6110b4565b6040516105079190614a64565b60405180910390f35b61052a60048036038101906105259190613e53565b61114b565b005b34801561053857600080fd5b50610541611547565b60405161054e9190614a64565b60405180910390f35b34801561056357600080fd5b5061057e60048036038101906105799190613fff565b61154d565b60405161058b9190614631565b60405180910390f35b6105ae60048036038101906105a99190614028565b6115ff565b005b3480156105bc57600080fd5b506105c561174c565b6040516105d2919061464c565b60405180910390f35b3480156105e757600080fd5b506105f0611770565b6040516105fd9190614a64565b60405180910390f35b34801561061257600080fd5b5061062d60048036038101906106289190613cac565b611776565b60405161063a9190614a64565b60405180910390f35b34801561064f57600080fd5b5061065861182e565b005b34801561066657600080fd5b50610681600480360381019061067c9190613fff565b611842565b005b34801561068f57600080fd5b50610698611854565b6040516106a59190614a64565b60405180910390f35b3480156106ba57600080fd5b506106c361185a565b6040516106d09190614631565b60405180910390f35b3480156106e557600080fd5b506106ee611884565b6040516106fb9190614712565b60405180910390f35b61071e60048036038101906107199190614028565b611916565b005b34801561072c57600080fd5b50610735611ac2565b6040516107429190614a64565b60405180910390f35b34801561075757600080fd5b50610772600480360381019061076d9190613fff565b611ace565b60405161077f91906146b3565b60405180910390f35b34801561079457600080fd5b506107af60048036038101906107aa9190613e17565b611b6f565b005b3480156107bd57600080fd5b506107d860048036038101906107d39190613ddb565b611b85565b005b3480156107e657600080fd5b5061080160048036038101906107fc9190614064565b611b9b565b005b34801561080f57600080fd5b5061082a60048036038101906108259190613fff565b611bca565b604051610838929190614734565b60405180910390f35b34801561084d57600080fd5b5061086860048036038101906108639190613fff565b611bf5565b6040516108789493929190614b16565b60405180910390f35b34801561088d57600080fd5b506108a860048036038101906108a39190613d60565b611c52565b005b3480156108b657600080fd5b506108d160048036038101906108cc9190613fff565b611cb4565b005b3480156108df57600080fd5b506108fa60048036038101906108f591906140a0565b611cc6565b6040516109079190614631565b60405180910390f35b34801561091c57600080fd5b5061093760048036038101906109329190613fff565b611d14565b6040516109449190614712565b60405180910390f35b34801561095957600080fd5b50610974600480360381019061096f9190613fff565b611d2c565b6040516109819190614712565b60405180910390f35b34801561099657600080fd5b506109b160048036038101906109ac9190613cd5565b611d3e565b6040516109be91906146f7565b60405180910390f35b3480156109d357600080fd5b506109ee60048036038101906109e99190613cac565b611dd2565b005b3480156109fc57600080fd5b50610a176004803603810190610a129190613fff565b611e56565b005b348015610a2557600080fd5b50610a406004803603810190610a3b91906140a0565b611e68565b604051610a4d9190614a64565b60405180910390f35b610a706004803603810190610a6b9190613fff565b611e99565b005b6000610a7d826122a4565b9050919050565b6000600e600083815260200190815260200160002060009054906101000a900460ff169050919050565b606060008054610abd90614ef8565b80601f0160208091040260200160405190810160405280929190818152602001828054610ae990614ef8565b8015610b365780601f10610b0b57610100808354040283529160200191610b36565b820191906000526020600020905b815481529060010190602001808311610b1957829003601f168201915b5050505050905090565b6000610b4b8261231e565b6004600083815260200190815260200160002060009054906101000a900473ffffffffffffffffffffffffffffffffffffffff169050919050565b6000610b918261154d565b90508073ffffffffffffffffffffffffffffffffffffffff168373ffffffffffffffffffffffffffffffffffffffff161415610c02576040517f08c379a0000000000000000000000000000000000000000000000000000000008152600401610bf9906149a4565b60405180910390fd5b8073ffffffffffffffffffffffffffffffffffffffff16610c21612369565b73ffffffffffffffffffffffffffffffffffffffff161480610c505750610c4f81610c4a612369565b611d3e565b5b610c8f576040517f08c379a0000000000000000000000000000000000000000000000000000000008152600401610c86906148e4565b60405180910390fd5b610c998383612371565b505050565b6000600980549050905090565b60006012543414610cf1576040517f08c379a0000000000000000000000000000000000000000000000000000000008152600401610ce890614a24565b60405180910390fd5b610cfb601461242a565b6000610d076014612440565b9050610d13338261244e565b610d1d818661246c565b3373ffffffffffffffffffffffffffffffffffffffff167fc1177815a22ab58cdf6e40a80dfe322e9d00b7977bd78634869752fed8082f568287604051610d65929190614a7f565b60405180910390a28060138190555060005b8451811015610ec15760106000838152602001908152602001600020858281518110610dcc577f4e487b7100000000000000000000000000000000000000000000000000000000600052603260045260246000fd5b60200260200101519080600181540180825580915050600190039060005260206000200160009091909190916101000a81548173ffffffffffffffffffffffffffffffffffffffff021916908373ffffffffffffffffffffffffffffffffffffffff16021790555060116000838152602001908152602001600020848281518110610e80577f4e487b7100000000000000000000000000000000000000000000000000000000600052603260045260246000fd5b602002602001015190806001815401808255809150506001900390600052602060002001600090919091909150558080610eb990614f5b565b915050610d77565b50809150509392505050565b610ede610ed8612369565b826124e0565b610f1d576040517f08c379a0000000000000000000000000000000000000000000000000000000008152600401610f14906149e4565b60405180910390fd5b610f28838383612575565b505050565b6000610f3883611776565b8210610f79576040517f08c379a0000000000000000000000000000000000000000000000000000000008152600401610f7090614764565b60405180910390fd5b600760008473ffffffffffffffffffffffffffffffffffffffff1673ffffffffffffffffffffffffffffffffffffffff168152602001908152602001600020600083815260200190815260200160002054905092915050565b610fda6127dc565b3373ffffffffffffffffffffffffffffffffffffffff166108fc479081150290604051600060405180830381858888f19350505050158015611020573d6000803e3d6000fd5b50565b61103e83838360405180602001604052806000815250611c52565b505050565b6060601160008381526020019081526020016000208054806020026020016040519081016040528092919081815260200182805480156110a257602002820191906000526020600020905b81548152602001906001019080831161108e575b50505050509050919050565b60155481565b60006110be610c9e565b82106110ff576040517f08c379a00000000000000000000000000000000000000000000000000000000081526004016110f6906149c4565b60405180910390fd5b60098281548110611139577f4e487b7100000000000000000000000000000000000000000000000000000000600052603260045260246000fd5b90600052602060002001549050919050565b6111536127dc565b60005b845181101561154057611169601461242a565b60006111756014612440565b9050611181338261244e565b6111cb818784815181106111be577f4e487b7100000000000000000000000000000000000000000000000000000000600052603260045260246000fd5b602002602001015161246c565b80601381905550604051806080016040528082815260200166038d7ea4c68000878581518110611224577f4e487b7100000000000000000000000000000000000000000000000000000000600052603260045260246000fd5b60200260200101516112369190614da2565b81526020013373ffffffffffffffffffffffffffffffffffffffff16815260200160001515815250600f6000838152602001908152602001600020600082015181600001556020820151816001015560408201518160020160006101000a81548173ffffffffffffffffffffffffffffffffffffffff021916908373ffffffffffffffffffffffffffffffffffffffff16021790555060608201518160020160146101000a81548160ff0219169083151502179055509050503373ffffffffffffffffffffffffffffffffffffffff167fbd69fd66a4a4463f2c3f9a0e0ac6c9ffc2e16b58e76279e74813aaa70ec54ef482888581518110611361577f4e487b7100000000000000000000000000000000000000000000000000000000600052603260045260246000fd5b602002602001015166038d7ea4c680008987815181106113aa577f4e487b7100000000000000000000000000000000000000000000000000000000600052603260045260246000fd5b60200260200101516113bc9190614da2565b6040516113cb93929190614aaf565b60405180910390a26113de333083610ecd565b60005b845181101561152b5760106000838152602001908152602001600020858281518110611436577f4e487b7100000000000000000000000000000000000000000000000000000000600052603260045260246000fd5b60200260200101519080600181540180825580915050600190039060005260206000200160009091909190916101000a81548173ffffffffffffffffffffffffffffffffffffffff021916908373ffffffffffffffffffffffffffffffffffffffff160217905550601160008381526020019081526020016000208482815181106114ea577f4e487b7100000000000000000000000000000000000000000000000000000000600052603260045260246000fd5b60200260200101519080600181540180825580915050600190039060005260206000200160009091909190915055808061152390614f5b565b9150506113e1565b5050808061153890614f5b565b915050611156565b5050505050565b60135481565b6000806002600084815260200190815260200160002060009054906101000a900473ffffffffffffffffffffffffffffffffffffffff169050600073ffffffffffffffffffffffffffffffffffffffff168173ffffffffffffffffffffffffffffffffffffffff1614156115f6576040517f08c379a00000000000000000000000000000000000000000000000000000000081526004016115ed90614984565b60405180910390fd5b80915050919050565b6116076127dc565b6002600c54141561164d576040517f08c379a000000000000000000000000000000000000000000000000000000000815260040161164490614a04565b60405180910390fd5b6002600c819055506000600f600084815260200190815260200160002090506116758361154d565b73ffffffffffffffffffffffffffffffffffffffff163373ffffffffffffffffffffffffffffffffffffffff16146116e2576040517f08c379a00000000000000000000000000000000000000000000000000000000081526004016116d9906147a4565b60405180910390fd5b6116f130838360000154611023565b8173ffffffffffffffffffffffffffffffffffffffff167f5985505df629cb063bed6c6c3b289388734f3b915b25eaab5fc6cd5192ff0737846040516117379190614a64565b60405180910390a2506001600c819055505050565b7f000000000000000000000000000000000000000000000000000000000000000081565b60125481565b60008073ffffffffffffffffffffffffffffffffffffffff168273ffffffffffffffffffffffffffffffffffffffff1614156117e7576040517f08c379a00000000000000000000000000000000000000000000000000000000081526004016117de90614884565b60405180910390fd5b600360008373ffffffffffffffffffffffffffffffffffffffff1673ffffffffffffffffffffffffffffffffffffffff168152602001908152602001600020549050919050565b6118366127dc565b611840600061285a565b565b61184a6127dc565b80600d8190555050565b600d5481565b6000600b60009054906101000a900473ffffffffffffffffffffffffffffffffffffffff16905090565b60606001805461189390614ef8565b80601f01602080910402602001604051908101604052809291908181526020018280546118bf90614ef8565b801561190c5780601f106118e15761010080835404028352916020019161190c565b820191906000526020600020905b8154815290600101906020018083116118ef57829003601f168201915b5050505050905090565b6002600c54141561195c576040517f08c379a000000000000000000000000000000000000000000000000000000000815260040161195390614a04565b60405180910390fd5b6002600c819055506000600f600084815260200190815260200160002090506119848361154d565b73ffffffffffffffffffffffffffffffffffffffff163373ffffffffffffffffffffffffffffffffffffffff16146119f1576040517f08c379a00000000000000000000000000000000000000000000000000000000081526004016119e8906147a4565b60405180910390fd5b60006015541115611a41576015543414611a40576040517f08c379a0000000000000000000000000000000000000000000000000000000008152600401611a37906148c4565b60405180910390fd5b5b611a5030838360000154611023565b8173ffffffffffffffffffffffffffffffffffffffff163373ffffffffffffffffffffffffffffffffffffffff167fc90ce4a418a4631e7da27c1ce2162a1fde2a048a8d959a3b325a1d72a5368e8d85604051611aad9190614a64565b60405180910390a3506001600c819055505050565b60148060000154905081565b606060106000838152602001908152602001600020805480602002602001604051908101604052809291908181526020018280548015611b6357602002820191906000526020600020905b8160009054906101000a900473ffffffffffffffffffffffffffffffffffffffff1673ffffffffffffffffffffffffffffffffffffffff1681526020019060010190808311611b19575b50505050509050919050565b611b776127dc565b611b81828261244e565b5050565b611b97611b90612369565b8383612920565b5050565b80600e600084815260200190815260200160002060006101000a81548160ff0219169083151502179055505050565b6060600080611bd93385610f2d565b90506000611be682611d2c565b90508082935093505050915091565b600f6020528060005260406000206000915090508060000154908060010154908060020160009054906101000a900473ffffffffffffffffffffffffffffffffffffffff16908060020160149054906101000a900460ff16905084565b611c63611c5d612369565b836124e0565b611ca2576040517f08c379a0000000000000000000000000000000000000000000000000000000008152600401611c99906149e4565b60405180910390fd5b611cae84848484612a8d565b50505050565b611cbc6127dc565b8060158190555050565b60106020528160005260406000208181548110611ce257600080fd5b906000526020600020016000915091509054906101000a900473ffffffffffffffffffffffffffffffffffffffff1681565b60606000611d2183611d2c565b905080915050919050565b6060611d3782612ae9565b9050919050565b6000600560008473ffffffffffffffffffffffffffffffffffffffff1673ffffffffffffffffffffffffffffffffffffffff16815260200190815260200160002060008373ffffffffffffffffffffffffffffffffffffffff1673ffffffffffffffffffffffffffffffffffffffff16815260200190815260200160002060009054906101000a900460ff16905092915050565b611dda6127dc565b600073ffffffffffffffffffffffffffffffffffffffff168173ffffffffffffffffffffffffffffffffffffffff161415611e4a576040517f08c379a0000000000000000000000000000000000000000000000000000000008152600401611e41906147c4565b60405180910390fd5b611e538161285a565b50565b611e5e6127dc565b8060128190555050565b60116020528160005260406000208181548110611e8457600080fd5b90600052602060002001600091509150505481565b6002600c541415611edf576040517f08c379a0000000000000000000000000000000000000000000000000000000008152600401611ed690614a04565b60405180910390fd5b6002600c819055506000600f60008381526020019081526020016000206001015490506000600f60008481526020019081526020016000209050600083118015611f325750611f2e6014612440565b8311155b611f71576040517f08c379a0000000000000000000000000000000000000000000000000000000008152600401611f6890614944565b60405180910390fd5b81341015611fb4576040517f08c379a0000000000000000000000000000000000000000000000000000000008152600401611fab90614924565b60405180910390fd5b8060020160149054906101000a900460ff1615612006576040517f08c379a0000000000000000000000000000000000000000000000000000000008152600401611ffd90614a44565b60405180910390fd5b7f000000000000000000000000000000000000000000000000000000000000000073ffffffffffffffffffffffffffffffffffffffff166108fc61204c84600d54612bfc565b9081150290604051600060405180830381858888f19350505050158015612077573d6000803e3d6000fd5b5061208482600d54612bfc565b8261208f9190614dfc565b915060005b60106000858152602001908152602001600020805490508110156121df576010600085815260200190815260200160002081815481106120fd577f4e487b7100000000000000000000000000000000000000000000000000000000600052603260045260246000fd5b9060005260206000200160009054906101000a900473ffffffffffffffffffffffffffffffffffffffff1673ffffffffffffffffffffffffffffffffffffffff166108fc6121a085601160008981526020019081526020016000208581548110612190577f4e487b7100000000000000000000000000000000000000000000000000000000600052603260045260246000fd5b9060005260206000200154612bfc565b9081150290604051600060405180830381858888f193505050501580156121cb573d6000803e3d6000fd5b5080806121d790614f5b565b915050612094565b5060018160020160146101000a81548160ff021916908315150217905550612208303385612575565b3373ffffffffffffffffffffffffffffffffffffffff168160020160009054906101000a900473ffffffffffffffffffffffffffffffffffffffff1673ffffffffffffffffffffffffffffffffffffffff167fbc81372cb43eb63513389e5c68506a567e9a556d282896565280ad923d78f9b985846001015460405161228f929190614aed565b60405180910390a350506001600c8190555050565b60007f780e9d63000000000000000000000000000000000000000000000000000000007bffffffffffffffffffffffffffffffffffffffffffffffffffffffff1916827bffffffffffffffffffffffffffffffffffffffffffffffffffffffff19161480612317575061231682612c7b565b5b9050919050565b61232781612d5d565b612366576040517f08c379a000000000000000000000000000000000000000000000000000000000815260040161235d90614984565b60405180910390fd5b50565b600033905090565b816004600083815260200190815260200160002060006101000a81548173ffffffffffffffffffffffffffffffffffffffff021916908373ffffffffffffffffffffffffffffffffffffffff160217905550808273ffffffffffffffffffffffffffffffffffffffff166123e48361154d565b73ffffffffffffffffffffffffffffffffffffffff167f8c5be1e5ebec7d5bd14f71427d1e84f3dd0314c0f7b2291e5b200ac8c7c3b92560405160405180910390a45050565b6001816000016000828254019250508190555050565b600081600001549050919050565b612468828260405180602001604052806000815250612dc9565b5050565b61247582612d5d565b6124b4576040517f08c379a00000000000000000000000000000000000000000000000000000000081526004016124ab906148a4565b60405180910390fd5b806006600084815260200190815260200160002090805190602001906124db9291906138f4565b505050565b6000806124ec8361154d565b90508073ffffffffffffffffffffffffffffffffffffffff168473ffffffffffffffffffffffffffffffffffffffff16148061252e575061252d8185611d3e565b5b8061256c57508373ffffffffffffffffffffffffffffffffffffffff1661255484610b40565b73ffffffffffffffffffffffffffffffffffffffff16145b91505092915050565b8273ffffffffffffffffffffffffffffffffffffffff166125958261154d565b73ffffffffffffffffffffffffffffffffffffffff16146125eb576040517f08c379a00000000000000000000000000000000000000000000000000000000081526004016125e2906147e4565b60405180910390fd5b600073ffffffffffffffffffffffffffffffffffffffff168273ffffffffffffffffffffffffffffffffffffffff16141561265b576040517f08c379a000000000000000000000000000000000000000000000000000000000815260040161265290614844565b60405180910390fd5b612666838383612e24565b612671600082612371565b6001600360008573ffffffffffffffffffffffffffffffffffffffff1673ffffffffffffffffffffffffffffffffffffffff16815260200190815260200160002060008282546126c19190614dfc565b925050819055506001600360008473ffffffffffffffffffffffffffffffffffffffff1673ffffffffffffffffffffffffffffffffffffffff16815260200190815260200160002060008282546127189190614d1b565b92505081905550816002600083815260200190815260200160002060006101000a81548173ffffffffffffffffffffffffffffffffffffffff021916908373ffffffffffffffffffffffffffffffffffffffff160217905550808273ffffffffffffffffffffffffffffffffffffffff168473ffffffffffffffffffffffffffffffffffffffff167fddf252ad1be2c89b69c2b068fc378daa952ba7f163c4a11628f55a4df523b3ef60405160405180910390a46127d7838383612e34565b505050565b6127e4612369565b73ffffffffffffffffffffffffffffffffffffffff1661280261185a565b73ffffffffffffffffffffffffffffffffffffffff1614612858576040517f08c379a000000000000000000000000000000000000000000000000000000000815260040161284f90614964565b60405180910390fd5b565b6000600b60009054906101000a900473ffffffffffffffffffffffffffffffffffffffff16905081600b60006101000a81548173ffffffffffffffffffffffffffffffffffffffff021916908373ffffffffffffffffffffffffffffffffffffffff1602179055508173ffffffffffffffffffffffffffffffffffffffff168173ffffffffffffffffffffffffffffffffffffffff167f8be0079c531659141344cd1fd0a4f28419497f9722a3daafe3b4186f6b6457e060405160405180910390a35050565b8173ffffffffffffffffffffffffffffffffffffffff168373ffffffffffffffffffffffffffffffffffffffff16141561298f576040517f08c379a000000000000000000000000000000000000000000000000000000000815260040161298690614864565b60405180910390fd5b80600560008573ffffffffffffffffffffffffffffffffffffffff1673ffffffffffffffffffffffffffffffffffffffff16815260200190815260200160002060008473ffffffffffffffffffffffffffffffffffffffff1673ffffffffffffffffffffffffffffffffffffffff16815260200190815260200160002060006101000a81548160ff0219169083151502179055508173ffffffffffffffffffffffffffffffffffffffff168373ffffffffffffffffffffffffffffffffffffffff167f17307eab39ab6107e8899845ad3d59bd9653f200f220920489ca2b5937696c3183604051612a8091906146f7565b60405180910390a3505050565b612a98848484612575565b612aa484848484612e39565b612ae3576040517f08c379a0000000000000000000000000000000000000000000000000000000008152600401612ada90614784565b60405180910390fd5b50505050565b6060612af48261231e565b6000600660008481526020019081526020016000208054612b1490614ef8565b80601f0160208091040260200160405190810160405280929190818152602001828054612b4090614ef8565b8015612b8d5780601f10612b6257610100808354040283529160200191612b8d565b820191906000526020600020905b815481529060010190602001808311612b7057829003601f168201915b505050505090506000612b9e612fd0565b9050600081511415612bb4578192505050612bf7565b600082511115612be9578082604051602001612bd192919061460d565b60405160208183030381529060405292505050612bf7565b612bf284612fe7565b925050505b919050565b600082620f42408085612c0f9190614d71565b612c199190614da2565b14612c59576040517f08c379a0000000000000000000000000000000000000000000000000000000008152600401612c5090614824565b60405180910390fd5b620f42408284612c699190614da2565b612c739190614d71565b905092915050565b60007f80ac58cd000000000000000000000000000000000000000000000000000000007bffffffffffffffffffffffffffffffffffffffffffffffffffffffff1916827bffffffffffffffffffffffffffffffffffffffffffffffffffffffff19161480612d4657507f5b5e139f000000000000000000000000000000000000000000000000000000007bffffffffffffffffffffffffffffffffffffffffffffffffffffffff1916827bffffffffffffffffffffffffffffffffffffffffffffffffffffffff1916145b80612d565750612d558261304f565b5b9050919050565b60008073ffffffffffffffffffffffffffffffffffffffff166002600084815260200190815260200160002060009054906101000a900473ffffffffffffffffffffffffffffffffffffffff1673ffffffffffffffffffffffffffffffffffffffff1614159050919050565b612dd383836130b9565b612de06000848484612e39565b612e1f576040517f08c379a0000000000000000000000000000000000000000000000000000000008152600401612e1690614784565b60405180910390fd5b505050565b612e2f838383613293565b505050565b505050565b6000612e5a8473ffffffffffffffffffffffffffffffffffffffff166133a7565b15612fc3578373ffffffffffffffffffffffffffffffffffffffff1663150b7a02612e83612369565b8786866040518563ffffffff1660e01b8152600401612ea59493929190614667565b602060405180830381600087803b158015612ebf57600080fd5b505af1925050508015612ef057506040513d601f19601f82011682018060405250810190612eed9190613f3f565b60015b612f73573d8060008114612f20576040519150601f19603f3d011682016040523d82523d6000602084013e612f25565b606091505b50600081511415612f6b576040517f08c379a0000000000000000000000000000000000000000000000000000000008152600401612f6290614784565b60405180910390fd5b805181602001fd5b63150b7a0260e01b7bffffffffffffffffffffffffffffffffffffffffffffffffffffffff1916817bffffffffffffffffffffffffffffffffffffffffffffffffffffffff191614915050612fc8565b600190505b949350505050565b606060405180602001604052806000815250905090565b6060612ff28261231e565b6000612ffc612fd0565b9050600081511161301c5760405180602001604052806000815250613047565b80613026846133ca565b60405160200161303792919061460d565b6040516020818303038152906040525b915050919050565b60007f01ffc9a7000000000000000000000000000000000000000000000000000000007bffffffffffffffffffffffffffffffffffffffffffffffffffffffff1916827bffffffffffffffffffffffffffffffffffffffffffffffffffffffff1916149050919050565b600073ffffffffffffffffffffffffffffffffffffffff168273ffffffffffffffffffffffffffffffffffffffff161415613129576040517f08c379a000000000000000000000000000000000000000000000000000000000815260040161312090614904565b60405180910390fd5b61313281612d5d565b15613172576040517f08c379a000000000000000000000000000000000000000000000000000000000815260040161316990614804565b60405180910390fd5b61317e60008383612e24565b6001600360008473ffffffffffffffffffffffffffffffffffffffff1673ffffffffffffffffffffffffffffffffffffffff16815260200190815260200160002060008282546131ce9190614d1b565b92505081905550816002600083815260200190815260200160002060006101000a81548173ffffffffffffffffffffffffffffffffffffffff021916908373ffffffffffffffffffffffffffffffffffffffff160217905550808273ffffffffffffffffffffffffffffffffffffffff16600073ffffffffffffffffffffffffffffffffffffffff167fddf252ad1be2c89b69c2b068fc378daa952ba7f163c4a11628f55a4df523b3ef60405160405180910390a461328f60008383612e34565b5050565b61329e838383613577565b600073ffffffffffffffffffffffffffffffffffffffff168373ffffffffffffffffffffffffffffffffffffffff1614156132e1576132dc8161357c565b613320565b8173ffffffffffffffffffffffffffffffffffffffff168373ffffffffffffffffffffffffffffffffffffffff161461331f5761331e83826135c5565b5b5b600073ffffffffffffffffffffffffffffffffffffffff168273ffffffffffffffffffffffffffffffffffffffff1614156133635761335e81613732565b6133a2565b8273ffffffffffffffffffffffffffffffffffffffff168273ffffffffffffffffffffffffffffffffffffffff16146133a1576133a08282613875565b5b5b505050565b6000808273ffffffffffffffffffffffffffffffffffffffff163b119050919050565b60606000821415613412576040518060400160405280600181526020017f30000000000000000000000000000000000000000000000000000000000000008152509050613572565b600082905060005b6000821461344457808061342d90614f5b565b915050600a8261343d9190614d71565b915061341a565b60008167ffffffffffffffff811115613486577f4e487b7100000000000000000000000000000000000000000000000000000000600052604160045260246000fd5b6040519080825280601f01601f1916602001820160405280156134b85781602001600182028036833780820191505090505b5090505b6000851461356b576001826134d19190614dfc565b9150600a856134e09190614fa4565b60306134ec9190614d1b565b60f81b818381518110613528577f4e487b7100000000000000000000000000000000000000000000000000000000600052603260045260246000fd5b60200101907effffffffffffffffffffffffffffffffffffffffffffffffffffffffffffff1916908160001a905350600a856135649190614d71565b94506134bc565b8093505050505b919050565b505050565b600980549050600a600083815260200190815260200160002081905550600981908060018154018082558091505060019003906000526020600020016000909190919091505550565b600060016135d284611776565b6135dc9190614dfc565b90506000600860008481526020019081526020016000205490508181146136c1576000600760008673ffffffffffffffffffffffffffffffffffffffff1673ffffffffffffffffffffffffffffffffffffffff168152602001908152602001600020600084815260200190815260200160002054905080600760008773ffffffffffffffffffffffffffffffffffffffff1673ffffffffffffffffffffffffffffffffffffffff168152602001908152602001600020600084815260200190815260200160002081905550816008600083815260200190815260200160002081905550505b6008600084815260200190815260200160002060009055600760008573ffffffffffffffffffffffffffffffffffffffff1673ffffffffffffffffffffffffffffffffffffffff16815260200190815260200160002060008381526020019081526020016000206000905550505050565b600060016009805490506137469190614dfc565b90506000600a600084815260200190815260200160002054905060006009838154811061379c577f4e487b7100000000000000000000000000000000000000000000000000000000600052603260045260246000fd5b9060005260206000200154905080600983815481106137e4577f4e487b7100000000000000000000000000000000000000000000000000000000600052603260045260246000fd5b906000526020600020018190555081600a600083815260200190815260200160002081905550600a6000858152602001908152602001600020600090556009805480613859577f4e487b7100000000000000000000000000000000000000000000000000000000600052603160045260246000fd5b6001900381819060005260206000200160009055905550505050565b600061388083611776565b905081600760008573ffffffffffffffffffffffffffffffffffffffff1673ffffffffffffffffffffffffffffffffffffffff168152602001908152602001600020600083815260200190815260200160002081905550806008600084815260200190815260200160002081905550505050565b82805461390090614ef8565b90600052602060002090601f0160209004810192826139225760008555613969565b82601f1061393b57805160ff1916838001178555613969565b82800160010185558215613969579182015b8281111561396857825182559160200191906001019061394d565b5b509050613976919061397a565b5090565b5b8082111561399357600081600090555060010161397b565b5090565b60006139aa6139a584614b80565b614b5b565b905080838252602082019050828560208602820111156139c957600080fd5b60005b858110156139f957816139df8882613b71565b8452602084019350602083019250506001810190506139cc565b5050509392505050565b6000613a16613a1184614bac565b614b5b565b90508083825260208201905082856020860282011115613a3557600080fd5b60005b85811015613a7f57813567ffffffffffffffff811115613a5757600080fd5b808601613a648982613c6d565b85526020850194506020840193505050600181019050613a38565b5050509392505050565b6000613a9c613a9784614bd8565b614b5b565b90508083825260208201905082856020860282011115613abb57600080fd5b60005b85811015613aeb5781613ad18882613c97565b845260208401935060208301925050600181019050613abe565b5050509392505050565b6000613b08613b0384614c04565b614b5b565b905082815260208101848484011115613b2057600080fd5b613b2b848285614eb6565b509392505050565b6000613b46613b4184614c35565b614b5b565b905082815260208101848484011115613b5e57600080fd5b613b69848285614eb6565b509392505050565b600081359050613b8081615668565b92915050565b600082601f830112613b9757600080fd5b8135613ba7848260208601613997565b91505092915050565b600082601f830112613bc157600080fd5b8135613bd1848260208601613a03565b91505092915050565b600082601f830112613beb57600080fd5b8135613bfb848260208601613a89565b91505092915050565b600081359050613c138161567f565b92915050565b600081359050613c2881615696565b92915050565b600081519050613c3d81615696565b92915050565b600082601f830112613c5457600080fd5b8135613c64848260208601613af5565b91505092915050565b600082601f830112613c7e57600080fd5b8135613c8e848260208601613b33565b91505092915050565b600081359050613ca6816156ad565b92915050565b600060208284031215613cbe57600080fd5b6000613ccc84828501613b71565b91505092915050565b60008060408385031215613ce857600080fd5b6000613cf685828601613b71565b9250506020613d0785828601613b71565b9150509250929050565b600080600060608486031215613d2657600080fd5b6000613d3486828701613b71565b9350506020613d4586828701613b71565b9250506040613d5686828701613c97565b9150509250925092565b60008060008060808587031215613d7657600080fd5b6000613d8487828801613b71565b9450506020613d9587828801613b71565b9350506040613da687828801613c97565b925050606085013567ffffffffffffffff811115613dc357600080fd5b613dcf87828801613c43565b91505092959194509250565b60008060408385031215613dee57600080fd5b6000613dfc85828601613b71565b9250506020613e0d85828601613c04565b9150509250929050565b60008060408385031215613e2a57600080fd5b6000613e3885828601613b71565b9250506020613e4985828601613c97565b9150509250929050565b60008060008060808587031215613e6957600080fd5b600085013567ffffffffffffffff811115613e8357600080fd5b613e8f87828801613bb0565b945050602085013567ffffffffffffffff811115613eac57600080fd5b613eb887828801613bda565b935050604085013567ffffffffffffffff811115613ed557600080fd5b613ee187828801613b86565b925050606085013567ffffffffffffffff811115613efe57600080fd5b613f0a87828801613bda565b91505092959194509250565b600060208284031215613f2857600080fd5b6000613f3684828501613c19565b91505092915050565b600060208284031215613f5157600080fd5b6000613f5f84828501613c2e565b91505092915050565b600080600060608486031215613f7d57600080fd5b600084013567ffffffffffffffff811115613f9757600080fd5b613fa386828701613c6d565b935050602084013567ffffffffffffffff811115613fc057600080fd5b613fcc86828701613b86565b925050604084013567ffffffffffffffff811115613fe957600080fd5b613ff586828701613bda565b9150509250925092565b60006020828403121561401157600080fd5b600061401f84828501613c97565b91505092915050565b6000806040838503121561403b57600080fd5b600061404985828601613c97565b925050602061405a85828601613b71565b9150509250929050565b6000806040838503121561407757600080fd5b600061408585828601613c97565b925050602061409685828601613c04565b9150509250929050565b600080604083850312156140b357600080fd5b60006140c185828601613c97565b92505060206140d285828601613c97565b9150509250929050565b60006140e8838361411b565b60208301905092915050565b600061410083836145ef565b60208301905092915050565b61411581614e42565b82525050565b61412481614e30565b82525050565b61413381614e30565b82525050565b600061414482614c86565b61414e8185614ccc565b935061415983614c66565b8060005b8381101561418a57815161417188826140dc565b975061417c83614cb2565b92505060018101905061415d565b5085935050505092915050565b60006141a282614c91565b6141ac8185614cdd565b93506141b783614c76565b8060005b838110156141e85781516141cf88826140f4565b97506141da83614cbf565b9250506001810190506141bb565b5085935050505092915050565b6141fe81614e54565b82525050565b600061420f82614c9c565b6142198185614cee565b9350614229818560208601614ec5565b61423281615091565b840191505092915050565b600061424882614ca7565b6142528185614cff565b9350614262818560208601614ec5565b61426b81615091565b840191505092915050565b600061428182614ca7565b61428b8185614d10565b935061429b818560208601614ec5565b80840191505092915050565b60006142b4602b83614cff565b91506142bf826150a2565b604082019050919050565b60006142d7603283614cff565b91506142e2826150f1565b604082019050919050565b60006142fa601583614cff565b915061430582615140565b602082019050919050565b600061431d602683614cff565b915061432882615169565b604082019050919050565b6000614340602583614cff565b915061434b826151b8565b604082019050919050565b6000614363601c83614cff565b915061436e82615207565b602082019050919050565b6000614386600983614cff565b915061439182615230565b602082019050919050565b60006143a9602483614cff565b91506143b482615259565b604082019050919050565b60006143cc601983614cff565b91506143d7826152a8565b602082019050919050565b60006143ef602983614cff565b91506143fa826152d1565b604082019050919050565b6000614412602e83614cff565b915061441d82615320565b604082019050919050565b6000614435602683614cff565b91506144408261536f565b604082019050919050565b6000614458603e83614cff565b9150614463826153be565b604082019050919050565b600061447b602083614cff565b91506144868261540d565b602082019050919050565b600061449e603383614cff565b91506144a982615436565b604082019050919050565b60006144c1601283614cff565b91506144cc82615485565b602082019050919050565b60006144e4602083614cff565b91506144ef826154ae565b602082019050919050565b6000614507601883614cff565b9150614512826154d7565b602082019050919050565b600061452a602183614cff565b915061453582615500565b604082019050919050565b600061454d602c83614cff565b91506145588261554f565b604082019050919050565b6000614570602e83614cff565b915061457b8261559e565b604082019050919050565b6000614593601f83614cff565b915061459e826155ed565b602082019050919050565b60006145b6601183614cff565b91506145c182615616565b602082019050919050565b60006145d9600983614cff565b91506145e48261563f565b602082019050919050565b6145f881614eac565b82525050565b61460781614eac565b82525050565b60006146198285614276565b91506146258284614276565b91508190509392505050565b6000602082019050614646600083018461412a565b92915050565b6000602082019050614661600083018461410c565b92915050565b600060808201905061467c600083018761412a565b614689602083018661412a565b61469660408301856145fe565b81810360608301526146a88184614204565b905095945050505050565b600060208201905081810360008301526146cd8184614139565b905092915050565b600060208201905081810360008301526146ef8184614197565b905092915050565b600060208201905061470c60008301846141f5565b92915050565b6000602082019050818103600083015261472c818461423d565b905092915050565b6000604082019050818103600083015261474e818561423d565b905061475d60208301846145fe565b9392505050565b6000602082019050818103600083015261477d816142a7565b9050919050565b6000602082019050818103600083015261479d816142ca565b9050919050565b600060208201905081810360008301526147bd816142ed565b9050919050565b600060208201905081810360008301526147dd81614310565b9050919050565b600060208201905081810360008301526147fd81614333565b9050919050565b6000602082019050818103600083015261481d81614356565b9050919050565b6000602082019050818103600083015261483d81614379565b9050919050565b6000602082019050818103600083015261485d8161439c565b9050919050565b6000602082019050818103600083015261487d816143bf565b9050919050565b6000602082019050818103600083015261489d816143e2565b9050919050565b600060208201905081810360008301526148bd81614405565b9050919050565b600060208201905081810360008301526148dd81614428565b9050919050565b600060208201905081810360008301526148fd8161444b565b9050919050565b6000602082019050818103600083015261491d8161446e565b9050919050565b6000602082019050818103600083015261493d81614491565b9050919050565b6000602082019050818103600083015261495d816144b4565b9050919050565b6000602082019050818103600083015261497d816144d7565b9050919050565b6000602082019050818103600083015261499d816144fa565b9050919050565b600060208201905081810360008301526149bd8161451d565b9050919050565b600060208201905081810360008301526149dd81614540565b9050919050565b600060208201905081810360008301526149fd81614563565b9050919050565b60006020820190508181036000830152614a1d81614586565b9050919050565b60006020820190508181036000830152614a3d816145a9565b9050919050565b60006020820190508181036000830152614a5d816145cc565b9050919050565b6000602082019050614a7960008301846145fe565b92915050565b6000604082019050614a9460008301856145fe565b8181036020830152614aa6818461423d565b90509392505050565b6000606082019050614ac460008301866145fe565b8181036020830152614ad6818561423d565b9050614ae560408301846145fe565b949350505050565b6000604082019050614b0260008301856145fe565b614b0f60208301846145fe565b9392505050565b6000608082019050614b2b60008301876145fe565b614b3860208301866145fe565b614b45604083018561410c565b614b5260608301846141f5565b95945050505050565b6000614b65614b76565b9050614b718282614f2a565b919050565b6000604051905090565b600067ffffffffffffffff821115614b9b57614b9a615062565b5b602082029050602081019050919050565b600067ffffffffffffffff821115614bc757614bc6615062565b5b602082029050602081019050919050565b600067ffffffffffffffff821115614bf357614bf2615062565b5b602082029050602081019050919050565b600067ffffffffffffffff821115614c1f57614c1e615062565b5b614c2882615091565b9050602081019050919050565b600067ffffffffffffffff821115614c5057614c4f615062565b5b614c5982615091565b9050602081019050919050565b6000819050602082019050919050565b6000819050602082019050919050565b600081519050919050565b600081519050919050565b600081519050919050565b600081519050919050565b6000602082019050919050565b6000602082019050919050565b600082825260208201905092915050565b600082825260208201905092915050565b600082825260208201905092915050565b600082825260208201905092915050565b600081905092915050565b6000614d2682614eac565b9150614d3183614eac565b9250827fffffffffffffffffffffffffffffffffffffffffffffffffffffffffffffffff03821115614d6657614d65614fd5565b5b828201905092915050565b6000614d7c82614eac565b9150614d8783614eac565b925082614d9757614d96615004565b5b828204905092915050565b6000614dad82614eac565b9150614db883614eac565b9250817fffffffffffffffffffffffffffffffffffffffffffffffffffffffffffffffff0483118215151615614df157614df0614fd5565b5b828202905092915050565b6000614e0782614eac565b9150614e1283614eac565b925082821015614e2557614e24614fd5565b5b828203905092915050565b6000614e3b82614e8c565b9050919050565b6000614e4d82614e8c565b9050919050565b60008115159050919050565b60007fffffffff0000000000000000000000000000000000000000000000000000000082169050919050565b600073ffffffffffffffffffffffffffffffffffffffff82169050919050565b6000819050919050565b82818337600083830152505050565b60005b83811015614ee3578082015181840152602081019050614ec8565b83811115614ef2576000848401525b50505050565b60006002820490506001821680614f1057607f821691505b60208210811415614f2457614f23615033565b5b50919050565b614f3382615091565b810181811067ffffffffffffffff82111715614f5257614f51615062565b5b80604052505050565b6000614f6682614eac565b91507fffffffffffffffffffffffffffffffffffffffffffffffffffffffffffffffff821415614f9957614f98614fd5565b5b600182019050919050565b6000614faf82614eac565b9150614fba83614eac565b925082614fca57614fc9615004565b5b828206905092915050565b7f4e487b7100000000000000000000000000000000000000000000000000000000600052601160045260246000fd5b7f4e487b7100000000000000000000000000000000000000000000000000000000600052601260045260246000fd5b7f4e487b7100000000000000000000000000000000000000000000000000000000600052602260045260246000fd5b7f4e487b7100000000000000000000000000000000000000000000000000000000600052604160045260246000fd5b6000601f19601f8301169050919050565b7f455243373231456e756d657261626c653a206f776e657220696e646578206f7560008201527f74206f6620626f756e6473000000000000000000000000000000000000000000602082015250565b7f4552433732313a207472616e7366657220746f206e6f6e20455243373231526560008201527f63656976657220696d706c656d656e7465720000000000000000000000000000602082015250565b7f4f6e6c79206f776e65722063616e20656e726f6c6c0000000000000000000000600082015250565b7f4f776e61626c653a206e6577206f776e657220697320746865207a65726f206160008201527f6464726573730000000000000000000000000000000000000000000000000000602082015250565b7f4552433732313a207472616e736665722066726f6d20696e636f72726563742060008201527f6f776e6572000000000000000000000000000000000000000000000000000000602082015250565b7f4552433732313a20746f6b656e20616c7265616479206d696e74656400000000600082015250565b7f746f6f20736d616c6c0000000000000000000000000000000000000000000000600082015250565b7f4552433732313a207472616e7366657220746f20746865207a65726f2061646460008201527f7265737300000000000000000000000000000000000000000000000000000000602082015250565b7f4552433732313a20617070726f766520746f2063616c6c657200000000000000600082015250565b7f4552433732313a2061646472657373207a65726f206973206e6f74206120766160008201527f6c6964206f776e65720000000000000000000000000000000000000000000000602082015250565b7f45524337323155524953746f726167653a2055524920736574206f66206e6f6e60008201527f6578697374656e7420746f6b656e000000000000000000000000000000000000602082015250565b7f57726f6e672076616c7565206e6f726d616c4e66745472616e7366657246656560008201527f50726963652e0000000000000000000000000000000000000000000000000000602082015250565b7f4552433732313a20617070726f76652063616c6c6572206973206e6f7420746f60008201527f6b656e206f776e6572206e6f7220617070726f76656420666f7220616c6c0000602082015250565b7f4552433732313a206d696e7420746f20746865207a65726f2061646472657373600082015250565b7f4e6f7420656e6f75676820657468657220746f20636f766572206974656d207060008201527f7269636520616e64206d61726b65742066656500000000000000000000000000602082015250565b7f4974656d20646f65736e27742065786973740000000000000000000000000000600082015250565b7f4f776e61626c653a2063616c6c6572206973206e6f7420746865206f776e6572600082015250565b7f4552433732313a20696e76616c696420746f6b656e2049440000000000000000600082015250565b7f4552433732313a20617070726f76616c20746f2063757272656e74206f776e6560008201527f7200000000000000000000000000000000000000000000000000000000000000602082015250565b7f455243373231456e756d657261626c653a20676c6f62616c20696e646578206f60008201527f7574206f6620626f756e64730000000000000000000000000000000000000000602082015250565b7f4552433732313a2063616c6c6572206973206e6f7420746f6b656e206f776e6560008201527f72206e6f7220617070726f766564000000000000000000000000000000000000602082015250565b7f5265656e7472616e637947756172643a207265656e7472616e742063616c6c00600082015250565b7f57726f6e672076616c75652073656e742e000000000000000000000000000000600082015250565b7f536f6c64206f7574210000000000000000000000000000000000000000000000600082015250565b61567181614e30565b811461567c57600080fd5b50565b61568881614e54565b811461569357600080fd5b50565b61569f81614e60565b81146156aa57600080fd5b50565b6156b681614eac565b81146156c157600080fd5b5056fea26469706673582212209d96447941f3aac464ccc5a36cfbd755f13fec88d408acb8ae747fa9a357ccdb64736f6c63430008040033",
    "linkReferences": {},
    "deployedLinkReferences": {}
}